:03000000020D5797
:100D570078FFE4F6D8FD9000007F007E01E4F0A361
:0A0D6700DFFCDEFA758163020DACBB
:060CB500021C0000C10258
:0611CF008FAC43AC80224E
:0B11BD0075AB8075AF1FD2BAD2AF2215
:10114D00E4AFADEF75F010A4FFAEF0ADAEEF4DFF17
:01115D00226F
:0300530002103C5C
:10103C00C0E0C0F0C0D075D000C005C006C007121B
:10104C00114D8E1C8F1DD202D007D006D005D0D0EA
:05105C00D0F0D0E032ED
:1010A700AE077F071211CF3002FDEE25E02408F8C6
:0810B700A61C08A61DC20222BE
:020EC4008F5F3E
:100EC600E4900012F0A3F0A3F0900012F0A3F0A3B8
:100ED600F0900014E0FFC3940A50221210A7E025F8
:100EE600E02408F8E6FE08E6FF900013E02FF090F5
:100EF6000012E03EF0900014E004F080D49000125E
:0C0F0600E0FEA3E0FF7C007D0A1209E47D
:010F120022BC
:100FC000E490000EF0A3F07F07120EC490000EEE26
:100FD000F0A3EFF0C394D0EE9407500CE09432905D
:0A0FE000000EE094007F00227F0164
:010FEA0022E4
:10115E00C2AF75F75575F7AA75F75A438F01D2AF1F
:01116E00225E
:10116F00C2AF75F75575F7AA75F75A538FFED2AF01
:01117F00224D
:10112800AB07AA0612115E8AE18BE28DE3E4F5E4CF
:0311380002116F32
:1010D500AB07AA0612115E8AE18BE28DE38CEB75F4
:0510E500E40102116F9F
:1011910012115EE4F5E18FE28DE375E40302116F54
:1011800012115EE4F5E18FE275E404AFE312116F32
:01119000223C
:080003008F828E83E493FF223B
:100CBB00012E0041000C00420007000042000A0018
:100CCB000042000500004100040041000900410002
:100CDB000D000259000002510000012C00015528A3
:100CEB0001563C015700012F0002530000014E003A
:100CFB00015800015000014F00012DAA022A0000EB
:100D0B001E303F0006005B004F1066006D007D003B
:100D1B0007007F006F00790038005C000000FF00C7
:100D2B0041000000410001004100020041000300AE
:100D3B0001210001220001230001240001250001F3
:0B0D4B002600012700012800012900FC
:06101600C2917F647E0020
:10101C00E4FDFCC3ED9FEC9E5015E4FBFA0BBB000A
:0F102C00010AEB64644A70F50DBD00010C80E40D
:01103B002292
:10108500E4F580F590F5B075D38075D2A8F5D575E2
:10109500D4DFF5DB75DA0ED286C290C285C291D255
:0210A500B02277
:0B0FEB00C2837F027E00120FF6D2834B
:100FF600E4FDFCC3ED9FEC9E5015E4FBFA0BBB0031
:0F100600010AEB640A4A70F50DBD00010C80E48D
:0110150022B8
:0710610025E02430F8E6FF52
:021068008F6394
:10106A00E4F9E56330E004D2868002C286120FEB0F
:0A107A00E563C313F56309B908E844
:011084002249
:10005600D286E4900013F0A3F0120FEB900013E0A9
:10006600C313F0308604E04480F0900014E004F0FE
:0B007600E0C3940840E3900013E0FF9B
:01008100225C
:100F1300E4F9F582F583C296C2B17F14FE12101C68
:100F2300D2967F147E00120FF6E58225E0F582E566
:100F33008333F583309503438201C2967F147E0089
:0D0F4300120FF609B910D9D2B1AE83AF82FA
:010F5000227E
:1010BF00E4FFFEF51EF51F120F13EF7802CEC313D8
:0510CF00CE13D8F9FF6B
:0110D40022F9
:10113B00A907D2847F027E0012101CC284AF010269
:02114B0010682A
:060C0F008F5F8D608B6118
:100C1500900000E0B55F13A3E0B5600EA3E0B561F9
:100C250009A3E065627003020CB4E54FB4011175C8
:100C35005F0D75600A756101900003E06562606F84
:100C45007F0112113B7F4012113B7FC012113BE522
:100C55005F121061E55F25E02431F8E6FF121068A8
:100C6500E560121061E56025E02431F8E6FF121019
:100C750068E561121061E56125E02431F8E6FF12AF
:100C85001068E4FF121068E4FF121068AF621210DA
:100C950068E4FF1210687F8E12113BD28490000029
:0F0CA500E55FF0A3E560F0A3E561F0A3E562F081
:010CB400221D
:100DF1007F4212113B12005690000EEFF012005686
:100E010090000FEFF0120056900010EFF012005614
:100E1100900011EFF0120056900012EFF0E4FF90F5
:100E2100000EE0FE5401D3940040030F8042EE54C3
:100E310008D3940040047F02803690000FE0FE54F6
:100E410001D3940040047F038026EE5408D394001C
:100E510040047F04801A900010E0FE5401D39400F6
:100E610040047F05800AEE5408D3940040027F06B7
:010E7100225E
:07008200AD55E4FF021191EE
:1010EA00E4FF1211808F55E555D3945A4006755581
:0510FA003C12008222FF
:0711C800AD567F01021191F9
:1010FF007F011211808F56E556D3945A40067556CC
:05110F003C1211C82292
:100F51000552E5527002055190000AE0FEA3E0FF40
:100F6100E4FCFD7B607AEAF9F8D3120A47400E905F
:100F7100000BE004F0700690000AE004F0055AE569
:080F81005A7002055902004FED
:100E7200E4FFFEFD120F13EF5404FDD39400400A69
:100E8200052190000C7419F0801BE4F521EF780322
:100E9200CEC313CE13D8F9FF7802CEC313CE13D824
:100EA200F990000CF0E521D394054015E54F64015B
:100EB200600F754F01852C627B017D0A7F0D120C3C
:010EC2000F20
:010EC300220C
:100A5D00E4F55BF55CF55DF55EAC59AD5A1209AB8D
:100A6D007B007A80795E784312092D4003020B5189
:100A7D00E4F559F55A120E7230001730B009C285DF
:100A8D00E4F550F52D8010E52F700CD2857550AA28
:100A9D008005C285E4F550120FC08F5CE55C1460D3
:100AAD0043046003020B51E52FB4010AE4900007E3
:100ABD00F0A3F0752F55E52FB45525900008E004EF
:100ACD00F07006900007E004F0D3900008E0941455
:100ADD00900007E094004008E4F52FF0A3F0C290D9
:100AED00E4F52222E52F7022E52E6003B4021BD21D
:100AFD00907F147E0012101C752F01E4900007F0FA
:100B0D00A3F0F562FBFDFF120C0F900008E004F05E
:100B1D007006900007E004F0121018E4F522D3904F
:100B2D000008E094EA900007E094004017C290E4BA
:100B3D00F52FF0A3F0852C627B027D0A7F0D120C40
:040B4D000F752E09E9
:010B51002281
:010089002254
:01008A002253
:050B5200752E027F0278
:020B57008F5CB1
:100B5900E4F55D200124E55CB40105755D028003BF
:100B6900755D1690000CE0C394235002802290001A
:100B79000CE0FFC3946450528029E55CB40105750B
:100B89005D028003755D1A90000CE0C3942350093F
:100B9900855D627B0C7D0B802D90000CE0FFC3947A
:100BA900645027EFFB7A007C007D0A7E001209E47D
:100BB900AD07C0057C007D0AAF037E001209E4ABD6
:100BC90005855D62D0057F0D803890000CE0FBFF44
:100BD9007E007C007D641209E4AA07EB249CFFE4F3
:100BE90034FFFE7C007D0A1209E4AD07C005E0FF71
:100BF9007E007C007D0A1209E4AB05855D62AF02C7
:050C0900D005120C0FE4
:010C0E0022C3
:0207CA008F5C42
:1007CC00120DF1EF64067033E52364AA702D052534
:1007DC00F529E525D39401500302087FE4F525F5AE
:1007EC0023E55CB4010CE555C3945A400302087F21
:1007FC008039E556C3945A507A804D120DF1EF644E
:10080C00067060E523705C0525F529E525D3943247
:10081C0040617525377527AA7FAA7E0012101CE54A
:10082C005CB4011DE555C3945A50480555E5557502
:10083C00F00A84FDE55575F00A84ABF075622580ED
:10084C001BE556C3945A502B0556E55675F00A8491
:10085C00FDE55675F00A84ABF07562297F0D120C1C
:10086C000F8010120DF1EF640660087523AAE4F5F1
:10087C0025F527120DF1EF64017031E52464AA709F
:10088C002B0526E526D39401500302092CE4F5260A
:10089C00F524E55CB4010CE555D39428500302090A
:1008AC002C8037E556D394284076804B120DF1EF0F
:1008BC006401705CE52470580526E526D39432401B
:1008CC005F7526377528AA7FAA7E0012101CE55C7E
:1008DC00B4011DE555D3942840461555E55575F0E2
:1008EC000A84FDE55575F00A84ABF0756225801B12
:1008FC00E556D3942840291556E55675F00A84FD23
:10090C00E55675F00A84ABF07562297F0D020C0F69
:10091C00120DF1EF640160087524AAE4F526F528A0
:01092C0022A8
:10008E00E4F55BE52EB40A0040030207C69000A219
:10009E00F82828730200C002010602014302038CF5
:1000AE000204AB0205CE0206580206A50207300274
:1000BE0007BDE52F60030207C9D3E5529437E5511A
:1000CE00940550030207C9E4F551F55290000CE077
:1000DE00942350097562167B0C7D0B8012E55575C5
:1000EE00F00A84FDE55575F00A84ABF07562167F53
:1000FE000D120C0F752E0122120DF1EF6003020787
:10010E00C9D200F553F554C20190000CE0C39423FC
:10011E0050097562167B0C7D0B8012E55575F00A41
:10012E0084FDE55575F00A84ABF07562167F0D12ED
:10013E000C0F0205C0E52F60030207C9120DF18FE7
:10014E005BE55B6405702E120E7290000CE0F557A5
:10015E00754EAA200105752E038003752E04E4F555
:10016E0053F55490000AF0A3F0F52AF52BD2917FA7
:10017E0064FE02064BE55BB40221E54E701DD29182
:10018E007F64FE12101C754EBBE4F553F554F55109
:10019E00F5527F01120B57752E0522E55B64037035
:1001AE0056300102C201E55575F00A84FDE555751C
:1001BE00F00A84ABF07562167F0D120C0FE4F55148
:1001CE00F5520554E55470020553D39418E5539433
:1001DE000150030207C9752E07E4F553F554F55186
:1001EE00F552E55575F00A84FDE55575F00A84ABB8
:1001FE00F075622502072BE55B6404705420010242
:10020E00D201E55675F00A84FDE55675F00A84AB09
:10021E00F075621A7F0D120C0F0554E5547002052D
:10022E0053E4F551F552D3E5549418E55394015027
:10023E00030207C9752E08E4F553F554E55675F01B
:10024E000A84FDE55675F00A84ABF0756229020743
:10025E002BAC51AD52E41209ABE4FBFA79B2784300
:10026E0012092D40030207C9E4F553F554F54EF576
:10027E0051F552200167E52C54109400400FE550C3
:10028E00B4AA0AE52DB4AA05752C068003752C16A2
:10029E0090000CE0C39422500A852C627B0C7D0BDF
:1002AE0002072B90000CE0FFD3942350030207C9E2
:1002BE00EF94645026EFFB7A007C007D0A7E0012DC
:1002CE0009E4AD07C0057C007D0AAF037E0012096C
:1002DE00E4AB05852C62D00502072B8066E52C5415
:1002EE0010D39400400FE550B4AA0AE52DB4AA0528
:1002FE00752C0A8003752C1A90000CE0C3942250C2
:10030E000A75621A7B0C7D0B02072B90000CE0FF26
:10031E00D3942350030207C9EF94645026EFFB7A5F
:10032E00007C007D0A7E001209E4AD07C0057C004A
:10033E007D0AAF037E001209E4AB05852C62D00561
:10034E0002072B90000CE0FBFF7E007C007D641208
:10035E0009E4AA07EB249CFFE434FFFE7C007D0A2F
:10036E001209E4AD07C005E0FF7E007C007D0A1295
:10037E0009E4AB05852C62AF02D0050207BAAC5179
:10038E00AD52E41209AB7B007A80795E7843120994
:10039E002D400302042FE4F551F552052BE52B7089
:1003AE0002052A90000CE0C3942350097562147B59
:1003BE000C7D0B802D90000CE0FFC394645027EF52
:1003CE00FB7A007C007D0A7E001209E4AD07C005B1
:1003DE007C007D0AAF037E001209E4AB0575621442
:1003EE00D0057F0D803890000CE0FBFF7E007C0076
:1003FE007D641209E4AA07EB249CFFE434FFFE7C23
:10040E00007D0A1209E4AD07C005E0FF7E007C0006
:10041E007D0A1209E4AB05756214AF02D005120C09
:10042E000F90000CE0F557C3955540220554E55446
:10043E0070020553D39406E5539400402CD39000DC
:10044E000BE094B190000AE09408401D8010E4F592
:10045E0053F554D3E52B9468E52A9401400B121002
:10046E0016E4F553F554752E02120DF18F58E5581A
:10047E00B40507E54E7003020635E54EB40114E5EA
:10048E00587010C2917F64FE12101CE4F553F5549F
:10049E000205C0E55860030207C9F54E22AC51AD06
:1004AE0052E41209AB7B007A80795E784312092DF3
:1004BE00400302054EE4F551F552052BE52B700273
:1004CE00052A90000CE0C3942350097562187B0C2A
:1004DE007D0B802D90000CE0FFC394645027EFFB42
:1004EE007A007C007D0A7E001209E4AD07C0057C0F
:1004FE00007D0AAF037E001209E4AB05756218D0C9
:10050E00057F0D803890000CE0FBFF7E007C007DA7
:10051E00641209E4AA07EB249CFFE434FFFE7C007E
:10052E007D0A1209E4AD07C005E0FF7E007C007D68
:10053E000A1209E4AB05756218AF02D005120C0F52
:10054E0090000CE0F557C3955640250554E55470C0
:10055E00020553D39406E5539400402FD390000B1D
:10056E00E094B190000AE094084020121016801812
:10057E00E4F553F554D3E52B9468E52A9401400B2A
:10058E00121016E4F553F554752E02120DF18F5814
:10059E00E558B40507E54E7003020635E54EB40185
:1005AE0015E5587011C2917F64FE12101CE4F553CC
:1005BE00F554752E0222E55860030207C9F54E2246
:1005CE00120DF18F58E5586402703C0554E55470D5
:1005DE00020553D39418E5539401403CE4F553F5CA
:1005EE0054754EBBC20090000AF0A3F0D290752E47
:1005FE0006200105756216800375621A7B037D0362
:10060E007F03120C0F8011D3E5529437E5519405F8
:10061E004006120B52121016E55864056005E55897
:10062E00B40208E54E7004754E0122E54EB4011079
:10063E00E558700C120B52C2917F647E0002101CA2
:10064E00E55860030207C9F54E22120DF1EF640260
:10065E007020E54E701CD3E552947AE55194034018
:10066E0011120B52C291C290121018D200754EBBCD
:10067E00800C120DF1EF7006F54EF551F552D39038
:10068E00000BE0946290000AE0941150030207C937
:10069E00C290E4F0A3F0227F011207CA120DF1EF0F
:1006AE00640370360554E55470020553D39432E555
:1006BE0053940050030207C9120082752E02D20015
:1006CE00E4F553F554E55575F00A84FDE55575F0DE
:1006DE000A84ABF075621602076DAC51AD52E4128E
:1006EE0009ABE4FBFA79B2784312092D40030207F5
:1006FE00C9E4F551F552900009E0B421057425F0D6
:10070E0080069000097421F0E55575F00A84FDE528
:10071E005575F00A84ABF0900009E0F5627F0D028A
:10072E0007BA7F021207CA120DF1EF6404703B057F
:10073E0054E55470020553D39432E5539400407B34
:10074E001211C8752E02D200E4F553F554E5567514
:10075E00F00A84FDE55675F00A84ABF075621A7FD7
:10076E000D120C0FE4F551F55222AC51AD52E412BC
:10077E0009ABE4FBFA79B2784312092D503DE4F54A
:10078E0051F552900009E0B421057429F0800690CD
:10079E0000097421F0E55675F00A84FDE55675F0F2
:1007AE000A84ABF0900009E0F5627F0D020C0FC2D7
:0B07BE0000C291C285C29022E4F52E1B
:0107C900220D
:100F890075E6201210851211A11211141211BDD289
:100F9900AFD2951210EA1210FF7562FF7B0E7D0E1B
:100FA9007F0E120C0F120A5D12008E12004F7F1471
:070FB9007E0012101C80EE07
:0F11A10043A802E4F589758CA2758A08D28C22C6
:03000B0002000EE2
:10000E00C0E0C0F0C083C082C0D075D000C000C0B8
:10001E0001C002C003C004C005C006C007758CA293
:10002E00758A08120F51D007D006D005D004D00320
:10003E00D002D001D000D0D0D082D083D0F0D0E08A
:01004E00327F
:10111400C2AF75F75575F7AA75F75A75B627E4F592
:041124009AD2AF228A
:04004F0075B755220A
:0D11B00075F75575F7AA75F75AE4F5B622E4
:03008B000211D58A
:0411D50075800032EF
:10092D0074F8CC6480CCC86480C8F58204604FC371
:10093D00EB9FF5F0EA9E42F0E99D42F0E89C45F010
:10094D00603C501DE5825FFFE582D313CB5BCBF49A
:10095D002B5582FB50280ABA002409B900200880C3
:10096D001DE5825BFBE582D313CF5FCFF4C3132F5D
:10097D005582FF50090EBE00050DBD00010CC3EBE5
:10098D009FF5F0EA9E42F0E99D42F0E89C45F0604B
:09099D0007CC4820E701B3EC226D
:1009A60075F020800E75F010800575F0087D007ECC
:1009B600007F003392D530D503120A39EC3340104C
:1009C600EF33FFEE33FEED33FDEC33FCD5F0ED22D5
:0E09D600E5F0247EA2D513CC92E7CDCEFF2211
:100D7100020F89E493A3F8E493A34003F68001F200
:100D810008DFF48029E493A3F85407240CC8C33383
:100D9100C4540F4420C8834004F456800146F6DF52
:100DA100E4800B0102040810204080900CB5E47E21
:100DB100019360BCA3FF543F30E509541FFEE49347
:100DC100A360010ECF54C025E060A840B8E493A30E
:100DD100FAE493A3F8E493A3C8C582C8CAC583CA39
:100DE100F0A3C8C582C8CAC583CADFE9DEE780BEF1
:010D5600009C
:1009E400BC000BBE0029EF8DF084FFADF022E4CCF7
:1009F400F875F008EF2FFFEE33FEEC33FCEE9DECC0
:100A0400984005FCEE9DFE0FD5F0E9E4CEFD22ED05
:100A1400F8F5F0EE8420D21CFEADF075F008EF2F4F
:100A2400FFED33FD4007985006D5F0F222C398FD40
:050A34000FD5F0EA22DD
:0E0A3900C3E49FFFE49EFEE49DFDE49CFC22CE
:100A4700EB9FF5F0EA9E42F0E99D42F0EC6480C826
:060A570064809845F022C6
:00000001FF
