:03000000021739AB
:1017390078FFE4F6D8FD9000007F007E02E4F0A374
:0A174900DFFCDEFA75817F02178EC7
:06118600021C0000C10480
:061FCC008FAC43AC802243
:0B1FAC0075AB0975AF5FD2BAD2AF224F
:101F3C00E4AFADEF75F010A4FFAEF0ADAEEF4DFF1A
:011F4C002272
:03005300021E8703
:101E8700C0E0C0F0C0D075D000C005C006C00712C2
:101E97001F3C8E1C8F1DD204D007D006D005D0D092
:051EA700D0F0D0E03294
:101D6800AE07EE700AFF121FCC3004FDC20422BE7B
:101D7800030B7F03121FCC3004FDC20422BE080AE5
:0B1D88007F08121FCC3004FDC20422B3
:021B3300AD07FC
:101B3500E4900022F0A3F0A3F0900022F0A3F0A31C
:101B4500F0AF05121D68900024E0FF25E02408F899
:101B5500A61C08A61DEF25E02408F8E6FE08E6FF0A
:101B6500900023E02FF0900022E03EF0900024E06A
:101B750004F0E0C3940A40C9900022E0FEA3E0FF10
:071B85007C007D0A12136DC4
:011B8C002236
:101D9300E4900020F0A3F07F03121B33900020EEA9
:101DA300F0A3EFF0C394D0EE9407500CE09432907C
:0A1DB3000020E094007F00227F0171
:011DBD002203
:101DE900E4900020F0A3F0FF121B33900020EEF0E6
:101DF900A3EFF0C394D0EE9407500CE09432900016
:091E090020E094007F00227F011B
:011E120022AD
:101DBE00E4900020F0A3F07F08121B33900020EE79
:101DCE00F0A3EFF0C394D0EE9407500CE094329051
:0A1DDE000020E094007F00227F0146
:011DE80022D8
:101F4D00C2AF75F75575F7AA75F75A438F01D2AF22
:011F5D002261
:101F5E00C2AF75F75575F7AA75F75A538FFED2AF04
:011F6E002250
:101F8000121F4DE4F5E18FE28DE375E403021F5E5D
:101F6F00121F4DE4F5E18FE275E404AFE3121F5E3B
:011F7F00223F
:10118C00013A00016D004100150042000D000041C4
:10119C0000080042001D000042001300004200063F
:1011AC00000042000A000042001900004100090042
:1011BC00410016004100120041001F0001600101B6
:1011CC007501026F0000025D0000026100000276F2
:1011DC00000001360001690001672801683C0135F7
:1011EC002801383C016B00013900013B00016E0005
:1011FC000263000002310000015B00017100016C10
:10120C0000013C00015F00017300015C00017200F1
:10121C000137AA016AAA02330000026500004100EE
:10122C0017004100180041001B0041001C00410048
:10123C000C0041000F00410010004100110001742E
:10124C00001E3D3F0006005B004F1066006D007DE8
:10125C000007007F006F00790038005C000000FF81
:10126C0000012100012200012300012400012500BE
:10127C00012600012700012800012900012A000194
:10128C002B00012C00012D00012E00012F0001303C
:10129C000041000000410001004100020041000338
:0912AC00004100040041000500AE
:101D0600E4F580F59075A030F5B075D39075D201E5
:101D1600F5D575D4EF75D76075D608F5DB75DAF7A6
:101D2600C297C296C2B1D285C290C291C2B0D282C7
:011D3600228A
:061E3B00C2B17FE87E0346
:101E4100E4FDFCC3ED9FEC9E5015E4FBFA0BBB00D7
:0F1E5100010AEB640A4A70F50DBD00010C80E434
:011E6000225F
:061EAC00C2937F027E00DC
:101EB200E4FDFCC3ED9FEC9E50070DBD00010C80BC
:011EC200F22D
:011EC30022FC
:071E610025E0243DF8E6FF37
:021E6800AB07C6
:101E6A00E4FAEB30E004D2948002C294121EACD29F
:0C1E7A0093121EB2EBC313FB0ABA08E679
:011E86002239
:101D3700D294E4900020F0A3F0121EACD293121EAE
:101D4700B2900020E0C313F0309404E04480F09098
:101D57000021E004F0E0C3940840DE900020E0FF9B
:011D67002259
:021B8D008F7C4B
:101B8F00E4F9F582F583C280E57CB40104C2958047
:101B9F0002C2A37FC87E00121E41E4F9D2807F28C3
:101BAF007E00121E41E58225E0F582E58333F58341
:101BBF00308103438201C2807F287E00121E4109BB
:101BCF00B910D9E57CB40104D2958002D2A3AE83BB
:021BDF00AF82D3
:011BE10022E1
:101F1800AB07D2927FC87E00121EB2C292AF0302F4
:021F28001E6831
:0417D3007D0A7F0DFF
:1017D7008F7C8D7DA903E55CB40110757C0D757D4B
:1017E7000A790190001CE0657F606E7F01121F1867
:1017F7007F40121F187FC0121F18E57C121E61E57B
:101807007C25E0243EF8E6FF121E68E57D121E6186
:10181700E57D25E0243EF8E6FF121E68E9121E6109
:10182700E925E0243EF8E6FF121E68E4FF121E6871
:10183700E4FF121E68AF7F121E68E4FF121E687F66
:101847008E121F18D292900017E57CF0A3E57DF069
:0A18570090001BE9F0A3E57FF022EA
:101A67007F42121F18121D37A907121D37AB071225
:101A77001D37AA07121D378F7A121D378F7BE4FF98
:101A8700E95401D3940040030F803AE95408D394F2
:101A97000040047F02802EEB5401D3940040047F62
:101AA700038022EB5408D3940040047F048016EA95
:101AB7005401D3940040047F05800AEA5408D39464
:051AC7000040027F0653
:011ACC0022F7
:071E130025E0243DF8E6FF85
:021E1A00AB0714
:101E1C00E4FAEB30E004D2B38002C2B3C2B4121EB7
:0E1E2C00AED2B4121EB2EBC313FB0ABA08E426
:011E3A002285
:101CD300D2B3E4900020F0A3F0C2B4121EAED2B48B
:101CE300121EB2900020E0C313F030B304E044802E
:101CF300F0900021E004F0E0C3940840DC90002061
:021D0300E0FFFF
:011D050022BB
:101F2A00AB07D2B57FC87E00121EB2C2B5AF03029C
:021F3A001E1A6D
:041861007D0A7F0D70
:101865008F7C8D7DA903E572B40110757C0D757DA6
:101875000A790190001CE0657F606E7F01121F2AC6
:101885007F40121F2A7FC0121F2AE57C121E13E516
:101895007C25E0243EF8E6FF121E1AE57D121E1394
:1018A500E57D25E0243EF8E6FF121E1AE9121E1317
:1018B500E925E0243EF8E6FF121E1AE4FF121E1A7F
:1018C500E4FF121E1AAF7F121E1AE4FF121E1A7FC2
:1018D5008E121F2AD2B590000CE57CF090000FE522
:0A18E5007DF0A3E9F0A3E57FF022F7
:101ACD007F42121F2A121CD3A907121CD3AB071277
:101ADD001CD3AA07121CD38F7A121CD38F7BE4FF61
:101AED00E95401D3940040030F803AE95408D3948C
:101AFD000040047F02802EEB5401D3940040047FFC
:101B0D00038022EB5408D3940040047F048016EA2E
:101B1D005401D3940040047F05800AEA5408D394FD
:051B2D000040027F06EC
:011B32002290
:07000300AD67E4FF021F805E
:101EC400E4FF121F6F8F67E567D3945A4006756766
:051ED4003C1200032296
:071FB700AD687F01021F80ED
:101ED9007F01121F6F8F68E568D3945A40067568B1
:051EE9003C121FB722AE
:071FBE00AD67E4FF021F8084
:101EEE00E4FF121F6F8F35E535D3945A40067535D2
:051EFE003C121FBE2292
:071FC500AD687F01021F80DF
:101F03007F01121F6F8F38E538D3945A4006753816
:051F13003C121FC52275
:1019FA000562E562700205610577E5777002057692
:101A0A00900013E0FEA3E0FFE4FCFD7B607AEAF9B4
:101A1A00F8D31213D0400E900014E004F070069030
:101A2A000013E004F0900006E0FEA3E0FFE4FCFDF2
:101A3A007B607AEAF9F8D31213D0400E900007E0DF
:101A4A0004F07006900006E004F00570E57070027C
:0D1A5A00056F055EE55E7002055D02004F40
:101C3500E4FFFEFD0F121B8DEF5404FDD39400400D
:101C45000A05219000157419F0801BE4F521EF7841
:101C550003CEC313CE13D8F9FF7802CEC313CE1328
:101C6500D8F9900015F0E521D394054011E55C64A1
:0E1C750001600B755C0185367F7B011217D371
:011C8300223E
:101C8400E4FEFD7F02121B8DEF5404FDD39400404B
:101C94000A05229000087419F0801BE4F522EF78FD
:101CA40003CEC313CE13D8F9FF7802CEC313CE13D9
:101CB400D8F9900008F0E522D394054011E5726448
:0E1CC40001600B75720185367F7B011218617D
:011CD20022EF
:1014D400E4F578F579F57AF57BAC6FAD70121334D9
:1014E4007B007A80795E78431212B640030215BEFF
:1014F400E4F56FF570121C35300013308509C2967F
:10150400E4F55FF537800CD296755FAA8005C29624
:10151400E4F55F121D938F79E57914604404600348
:101524000215BEE53BB4010AE490000DF0A3F0758A
:101534003B55E53B645560030215BE90000EE00484
:10154400F0700690000DE004F0D390000EE09414C7
:1015540090000DE094004062E4F53BF0A3F0C297E4
:1015640022E53B7022E53A6003B4021BD2977FC8A0
:101574007E00121E41753B01E490000DF0A3F0F5CE
:101584007FFBFDFF1217D790000EE004F070069069
:10159400000DE004F0121E3DD390000EE094EA909A
:1015A400000DE094004013C297E4F53BF0A3F085EE
:0A15B400367F7B021217D3753A0947
:0115BE00220A
:1013E600E4F578F579F57AF57BAC5DAD5E121334EC
:1013F6007B007A80795E78431212B640030214D3DA
:10140600E4F55DF55E121C84300213308209C29148
:10141600E4F573F56A800CD2917573AA8005C291C2
:10142600E4F573121DE98F79E579146044046003CD
:101436000214D3E56EB4010AE490001DF0A3F07522
:101446006E55E56E645560030214D390001EE004E9
:10145600F0700690001DE004F0D390001EE0941496
:1014660090001DE094004065E4F56EF0A3F0C29094
:1014760022E56E7022E56D6003B4021BD2907FC830
:101486007E00121E41756E01E490001DF0A3F0F57A
:101496007FFBFDFF12186590000EE004F0700690C9
:1014A600000DE004F0121E3DD390000EE094EA9089
:1014B600000DE094004016C290E4F56E90001DF019
:0D14C600A3F085367F7B02121861756D0959
:0114D30022F6
:0515BF00753A027F02F5
:0215C4008F791D
:1015C600E4F57A200124E579B40105757A028003F1
:1015D600757A16900015E0C394235002802290007D
:1015E60015E0FFC3946450528029E579B40105756E
:1015F6007A028003757A1A900015E0C39423500985
:10160600857A7F7B0C7D0B802D900015E0FFC394BF
:10161600645027EFFB7A007C007D0A7E0012136D72
:10162600AD07C0057C007D0AAF037E0012136DABCB
:1016360005857A7FD0057F0D8038900015E0FBFF89
:101646007E007C007D6412136DAA07EB249CFFE4E8
:1016560034FFFE7C007D0A12136DAD07C005E0FF66
:101666007E007C007D0A12136DAB05857A7FAF0282
:05167600D0051217D79A
:01167B00224C
:020EC0008F7928
:100EC200121A67EF64067033E52364AA702D0525B4
:100ED200F529E525D394015003020F75E4F525F5B4
:100EE20023E579B4010CE567C3945A4003020F75F8
:100EF2008039E568C3945A507A804D121A67EF64BC
:100F0200067060E523705C0525F529E525D394324A
:100F120040617525377527AA7FA47E06121E41E51A
:100F220079B4011DE567C3945A50480567E56775B2
:100F3200F00A84FDE56775F00A84ABF0757F2580C1
:100F42001BE568C3945A502B0568E56875F00A845E
:100F5200FDE56875F00A84ABF0757F297F0D1217E5
:100F6200D78010121A67EF640660087523AAE4F5A9
:100F720025F527121A67EF64017031E52464AA701F
:100F82002B0526E526D394015003021022E4F52610
:100F9200F524E579B4010CE567D3942850030210D7
:100FA200228037E568D394284076804B121A67EF87
:100FB2006401705CE52470580526E526D39432401E
:100FC2005F7526377528AA7FA47E06121E41E57931
:100FD200B4011DE567D3942840461567E56775F0AF
:100FE2000A84FDE56775F00A84ABF0757F25801BE6
:100FF200E568D3942840291568E56875F00A84FDF0
:10100200E56875F00A84ABF0757F297F0D0217D76A
:10101200121A67EF640160087524AAE4F526F52820
:0110220022AB
:10079100E4F578E53AB40B004003020EBC9007A5DE
:1007A100F82828730207C602080C020849020A8CBD
:1007B100020BA6020CC4020D4E020D9B020E260274
:1007C1000EB3020EB3E53B6003020EBFD3E56294A4
:1007D10037E56194055003020EBFE4F561F56290BF
:1007E1000015E094235009757F167B0C7D0B801258
:1007F100E56775F00A84FDE56775F00A84ABF0756D
:100801007F167F0D1217D7753A0122121A67EF6012
:1008110003020EBFD200F563F564C201900015E03A
:10082100C394235009757F167B0C7D0B8012E567FD
:1008310075F00A84FDE56775F00A84ABF0757F16E3
:100841007F0D1217D7020CB6E53B6003020EBF12F3
:100851001A678F78E5786405702B121C35900015A6
:10086100E0F56B755BAA200105753A038003753AC3
:1008710004E4F563F564900013F0A3F0F533F53467
:10088100D2B1020D3DE578B4021EE55B701AD2B11A
:10089100121E3D755BBBE4F563F564F561F5627F9E
:1008A100011215C4753A0522E578640370563001CA
:1008B10002C201E56775F00A84FDE56775F00A84F7
:1008C100ABF0757F167F0D1217D7E4F561F5620560
:1008D10064E56470020563D39418E56394015003E1
:1008E100020EBF753A07E4F563F564F561F562E55B
:1008F1006775F00A84FDE56775F00A84ABF0757FD2
:1009010025020E21E57864047054200102D201E52C
:100911006875F00A84FDE56875F00A84ABF0757FAF
:100921001A7F0D1217D70564E56470020563E4F5BB
:1009310061F562D3E5649418E56394015003020EF6
:10094100BF753A08E4F563F564E56875F00A84FD5E
:10095100E56875F00A84ABF0757F29020E21AC6160
:10096100AD62E4121334E4FBFA79B278431212B6A1
:100971004003020EBFE4F563F564F55BF561F562D2
:10098100200167E53654109400400FE55FB4AA0AD0
:10099100E537B4AA0575360680037536169000153D
:1009A100E0C39422500A85367F7B0C7D0B020E2119
:1009B100900015E0FFD394235003020EBFEF94641F
:1009C1005026EFFB7A007C007D0A7E0012136DAD8C
:1009D10007C0057C007D0AAF037E0012136DAB05D5
:1009E10085367FD005020E218066E5365410D394FA
:1009F10000400FE55FB4AA0AE537B4AA0575360AC7
:100A0100800375361A900015E0C39422500A757F51
:100A11001A7B0C7D0B020E21900015E0FFD394236D
:100A21005003020EBFEF94645026EFFB7A007C0066
:100A31007D0A7E0012136DAD07C0057C007D0AAFF3
:100A4100037E0012136DAB0585367FD005020E21A2
:100A5100900015E0FBFF7E007C007D6412136DAAFF
:100A610007EB249CFFE434FFFE7C007D0A12136D2A
:100A7100AD07C005E0FF7E007C007D0A12136DAB5F
:100A81000585367FAF02D005020EB0AC61AD62E4E0
:100A91001213347B007A80795E78431212B64003D8
:100AA100020B2FE4F561F5620534E534700205337C
:100AB100900015E0C394235009757F147B0C7D0BC6
:100AC100802D900015E0FFC394645027EFFB7A005E
:100AD1007C007D0A7E0012136DAD07C0057C007D90
:100AE1000AAF037E0012136DAB05757F14D0057F2D
:100AF1000D8038900015E0FBFF7E007C007D6412C4
:100B0100136DAA07EB249CFFE434FFFE7C007D0AF1
:100B110012136DAD07C005E0FF7E007C007D0A1257
:100B2100136DAB05757F14AF02D0051217D7900076
:100B310015E0F56BC3956740220564E56470020515
:100B410063D39406E5639400402CD3900014E094A1
:100B5100B1900013E09408401D8010E4F563F56442
:100B6100D3E5349468E5339401400B121E3BE4F560
:100B710063F564753A02121A678F6CE56CB4050768
:100B8100E55B7003020D2BE55BB4010FE56C700BA7
:100B9100121E3BE4F563F564020CB6E56C600302DA
:100BA1000EBFF55B22AC61AD62E41213347B007AB7
:100BB10080795E78431212B64003020C49E4F56174
:100BC100F5620534E53470020533900015E0C394F5
:100BD100235009757F187B0C7D0B802D900015E04B
:100BE100FFC394645027EFFB7A007C007D0A7E00EE
:100BF10012136DAD07C0057C007D0AAF037E0012A4
:100C0100136DAB05757F18D0057F0D8038900015E9
:100C1100E0FBFF7E007C007D6412136DAA07EB24CC
:100C21009CFFE434FFFE7C007D0A12136DAD07C00A
:100C310005E0FF7E007C007D0A12136DAB05757F18
:100C410018AF02D0051217D7900015E0F56BC395C8
:100C51006840250564E56470020563D39406E56385
:100C61009400402FD3900014E094B1900013E094CD
:100C7100084020121E3B8018E4F563F564D3E53487
:100C81009468E5339401400B121E3BE4F563F5646F
:100C9100753A02121A678F6CE56CB40507E55B7053
:100CA10003020D2BE55BB40110E56C700C121E3BC9
:100CB100E4F563F564753A0222E56C6003020EBF48
:100CC100F55B22121A678F6CE56C6402703C056457
:100CD100E56470020563D39418E5639401403CE434
:100CE100F563F564755BBBC200900013F0A3F0D20D
:100CF10097753A06200105757F168003757F1A7B6B
:100D0100037D037F031217D78011D3E5629437E582
:100D110061940540061215BF121E3BE56C64056027
:100D210005E56CB40208E55B7004755B0122E55BC7
:100D3100B40110E56C700C1215BFC2B17FE87E03DF
:100D4100021E41E56C6003020EBFF55B22121A67B9
:100D5100EF64027020E55B701CD3E562947AE56173
:100D6100940340111215BFC2B1C297121E3DD200A9
:100D7100755BBB800C121A67EF7006F55BF561F5C8
:100D810062D3900014E09462900013E09411500338
:100D9100020EBFC297E4F0A3F0227F01120EC0122F
:100DA1001A67EF640370360564E56470020563D366
:100DB1009432E56394005003020EBF120003753AAA
:100DC10002D200E4F563F564E56775F00A84FDE598
:100DD1006775F00A84ABF0757F16020E63AC61ADE6
:100DE10062E4121334E4FBFA79B278431212B6408A
:100DF10003020EBFE4F561F562900012E0B4210533
:100E01007425F080069000127421F0E56775F00AF0
:100E110084FDE56775F00A84ABF0900012E0F57F80
:100E21007F0D020EB07F02120EC0121A67EF64042A
:100E3100703B0564E56470020563D39432E5639405
:100E410000407B121FB7753A02D200E4F563F564E6
:100E5100E56875F00A84FDE56875F00A84ABF07504
:100E61007F1A7F0D1217D7E4F561F56222AC61ADEF
:100E710062E4121334E4FBFA79B278431212B650E9
:100E81003DE4F561F562900012E0B421057429F0AA
:100E910080069000127421F0E56875F00A84FDE582
:100EA1006875F00A84ABF0900012E0F57F7F0D02C7
:0E0EB10017D7C200C2B1C296C29722E4F53A2A
:010EBF002210
:05167C00756D027F0204
:021681008F795F
:10168300E4F57A200324E579B40105757A02800331
:10169300757A16900008E0C39423500280229000CC
:1016A30008E0FFC3946450528029E579B4010575BD
:1016B3007A028003757A1A900008E0C394235009D4
:1016C300857A7F7B0C7D0B802D900008E0FFC3940F
:1016D300645027EFFB7A007C007D0A7E0012136DB5
:1016E300AD07C0057C007D0AAF037E0012136DAB0E
:1016F30005857A7FD0057F0D8038900008E0FBFFD9
:101703007E007C007D6412136DAA07EB249CFFE42A
:1017130034FFFE7C007D0A12136DAD07C005E0FFA8
:101723007E007C007D0A12136DAB05857A7FAF02C4
:05173300D0051218654D
:01173800228E
:021023008F79C3
:10102500121ACDEF64067033E52A64AA702D052CDB
:10103500F530E52CD3940150030210D8E4F52CF5D6
:101045002AE579B4010CE535C3945A40030210D85A
:101055008039E538C3945A507A804D121ACDEF6421
:10106500067060E52A705C052CF530E52CD39432CA
:101075004061752C37752EAA7FA47E06121E41E5A8
:1010850079B4011DE535C3945A50480535E53575E4
:10109500F00A84FDE53575F00A84ABF0757F25808F
:1010A5001BE538C3945A502B0538E53875F00A848A
:1010B500FDE53875F00A84ABF0757F297F0D1218B0
:1010C500658010121ACDEF64066008752AAAE4F54A
:1010D5002CF52E121ACDEF64017031E52B64AA7040
:1010E5002B052DE52DD394015003021185E4F52D33
:1010F500F52BE579B4010CE535D39428500302119D
:10110500858037E538D394284076804B121ACDEF89
:101115006401705CE52B7058052DE52DD3943240A4
:101125005F752D37752FAA7FA47E06121E41E579BE
:10113500B4011DE535D3942840461535E53575F0E0
:101145000A84FDE53575F00A84ABF0757F25801BB3
:10115500E538D3942840291538E53875F00A84FD1B
:10116500E53875F00A84ABF0757F297F0D021865A7
:10117500121ACDEF64016008752BAAE4F52DF52F41
:011185002247
:10005600E4F578E56DB40B00400302078D90006A65
:10006600F828287302008B0200D102010E02035108
:1000760002046F02059302061F02066C0206F702CF
:100086000784020784E56E6003020790D3E5779440
:1000960037E57694055003020790E4F576F57790F8
:1000A6000008E094235009757F167B0C7D0B8012A7
:1000B600E53575F00A84FDE53575F00A84ABF07513
:1000C6007F167F0D121865756D0122121ACDEF602D
:1000D60003020790D202F531F532C203900008E020
:1000E600C394235009757F167B0C7D0B8012E53572
:1000F60075F00A84FDE53575F00A84ABF0757F1658
:100106007F0D121865020585E56E600302079012E1
:100116001ACD8F78E5786405702B121C8490000840
:10012600E0F5397571AA200305756D038003756DB9
:1001360004E4F531F532900006F0A3F0F565F566B6
:10014600D2B002060EE578B4021EE571701AD2B07E
:10015600121E3D7571BBE4F531F532F576F5777F04
:1001660001121681756D0522E57864037056300319
:1001760002C203E53575F00A84FDE53575F00A849B
:10018600ABF0757F167F0D121865E4F576F57705E9
:1001960032E53270020531D39418E53194015003EB
:1001A600020790756D07E4F531F532F576F577E5DA
:1001B6003575F00A84FDE53575F00A84ABF0757F78
:1001C600250206F2E57864047054200302D203E5A2
:1001D6003875F00A84FDE53875F00A84ABF0757F52
:1001E6001A7F0D1218650532E53270020531E4F505
:1001F60076F577D3E5329418E5319401500302077A
:1002060090756D08E4F531F532E53875F00A84FD30
:10021600E53875F00A84ABF0757F290206F2AC76F4
:10022600AD77E4121334E4FBFA79B278431212B6CE
:100236004003020790E4F531F532F571F576F5776E
:10024600200367E56954109400400FE573B4AA0AC9
:10025600E56AB4AA057569068003756916900008F3
:10026600E0C39422500A85697F7B0C7D0B0206F25F
:10027600900008E0FFD394235003020790EF9464A4
:100286005026EFFB7A007C007D0A7E0012136DADCE
:1002960007C0057C007D0AAF037E0012136DAB0517
:1002A60085697FD0050206F28066E5695410D3940D
:1002B60000400FE573B4AA0AE56AB4AA0575690A8F
:1002C600800375691A900008E0C39422500A757F6E
:1002D6001A7B0C7D0B0206F2900008E0FFD39423F4
:1002E6005003020790EF94645026EFFB7A007C00DF
:1002F6007D0A7E0012136DAD07C0057C007D0AAF36
:10030600037E0012136DAB0585697FD0050206F2E8
:10031600900008E0FBFF7E007C007D6412136DAA4E
:1003260007EB249CFFE434FFFE7C007D0A12136D6C
:10033600AD07C005E0FF7E007C007D0A12136DABA1
:100346000585697FAF02D005020781AC76AD77E4FB
:100356001213347B007A80795E78431212B640031A
:100366000203F4E4F576F5770566E5667002056541
:10037600900008E0C394235009757F147B0C7D0B15
:10038600802D900008E0FFC394645027EFFB7A00AD
:100396007C007D0A7E0012136DAD07C0057C007DD2
:1003A6000AAF037E0012136DAB05757F14D0057F6F
:1003B6000D8038900008E0FBFF7E007C007D641213
:1003C600136DAA07EB249CFFE434FFFE7C007D0A34
:1003D60012136DAD07C005E0FF7E007C007D0A129A
:1003E600136DAB05757F14AF02D00512186590002A
:1003F60008E0F539C3953540220532E5327002052D
:1004060031D39406E5319400402ED3900007E09452
:10041600B1900006E09408401F8010E4F531F532F3
:10042600D3E5669468E5659401400DC2B0121E3DA1
:10043600E4F531F532756D02121ACD8F6CE56CB4A8
:100446000507E57170030205FCE571B40111E56C61
:10045600700DC2B0121E3DE4F531F532020585E598
:100466006C6003020790F57122AC76AD77E4121347
:10047600347B007A80795E78431212B64003020517
:1004860012E4F576F5770566E56670020565900077
:1004960008E0C394235009757F187B0C7D0B802DD3
:1004A600900008E0FFC394645027EFFB7A007C00BD
:1004B6007D0A7E0012136DAD07C0057C007D0AAF74
:1004C600037E0012136DAB05757F18D0057F0D8076
:1004D60038900008E0FBFF7E007C007D6412136DFF
:1004E600AA07EB249CFFE434FFFE7C007D0A12136E
:1004F6006DAD07C005E0FF7E007C007D0A12136D1E
:10050600AB05757F18AF02D005121865900008E09C
:10051600F56BC3953840270532E53270020531D3B5
:100526009406E53194004033D3900007E094B190EF
:100536000006E094084024C2B0121E3D801AE4F57D
:1005460031F532D3E5669468E5659401400DC2B095
:10055600121E3DE4F531F532756D02121ACD8F6C1F
:10056600E56CB40507E57170030205FCE571B4019D
:1005760012E56C700EC2B0121E3DE4F531F532750F
:100586006D0222E56C6003020790F57122121ACD06
:100596008F6CE56C6402703C0532E5327002053101
:1005A600D39418E5319401403EE4F531F532757186
:1005B600BBC202900006F0A3F0D290756D06200330
:1005C60005757F168003757F1A7B037D037F0312F3
:1005D60018658013D3E5779437E5769405400812BD
:1005E600167CC2B0121E3DE56C64056005E56CB470
:1005F6000208E571700475710122E571B40110E518
:100606006C700C12167CC2B07FE87E03021E41E5B8
:100616006C6003020790F57122121ACDEF64027026
:1006260020E571701CD3E577947AE5769403401142
:1006360012167CC2B0C290121E3DD2027571BB80EA
:100646000C121ACDEF7006F571F576F577D390009A
:1006560007E09462900006E094115003020790C2EE
:1006660090E4F0A3F0227F01121023121ACDEF645A
:100676000370360532E53270020531D39432E53126
:1006860094005003020790121FBE756D02D202E459
:10069600F531F532E53575F00A84FDE53575F00A74
:1006A60084ABF0757F16020734AC76AD77E412138F
:1006B60034E4FBFA79B278431212B640030207908B
:1006C600E4F576F57790001FE0B421057425F080F7
:1006D6000690001F7421F0E53575F00A84FDE535B6
:1006E60075F00A84ABF090001FE0F57F7F0D0207DE
:1006F600817F02121023121ACDEF6404703B05327B
:10070600E53270020531D39432E5319400407B1214
:100716001FC5756D02D202E4F531F532E53875F084
:100726000A84FDE53875F00A84ABF0757F1A7F0DF3
:10073600121865E4F576F57722AC76AD77E41213F8
:1007460034E4FBFA79B278431212B6503DE4F576FA
:10075600F57790001FE0B421057429F0800690001B
:100766001F7421F0E53875F00A84FDE53875F00A46
:1007760084ABF090001FE0F57F7F0D021865C20282
:0A078600C2B0C291C29022E4F56DEA
:010790002246
:101BE200121DBEEFD394004031900001E004F0E0FA
:101BF200D39405403D90000074AAF0E5606008852A
:101C0200367F7B031217D3E575600885367F7B0329
:101C1200121861756D09753A0922E4900001F0907D
:101C22000000E0B4AA0CE4F0D200D202756D027595
:021C32003A0274
:011C3400228D
:10197800D2A630A626900002E004F0E0D3940A40F4
:101988003090000474AAF0E4F57F7B0D7D0D7F0D87
:101998001217D7753A0AE4F5608016E4900002F051
:1019A800900004E0B4AA0A756001E4F0D200753A28
:1019B80002D2A530A525900003E004F0E0D3940AF4
:1019C800402F90000574AAF0E4F57F7B0D7D0D7F14
:1019D8000D121865756D0AE4F57522E4900003F0A0
:1019E800900005E0B4AA0AE4F0D202757501756D9D
:0119F80002EC
:0119F90022CB
:1018EF0075E620121D06121F90121F9F121FACD2F9
:1018FF00AFD281121EC4121ED9121EEE121F037513
:10190F007FFF7B0E7D0E7F0E1217D7757FFF7B0E2D
:10191F007D0E7F0E1218651214D41213E612079162
:10192F001200560574E574D39403402B900017E012
:10193F00FFA3E0FD90001BE0FBA3E0F57F1217D79C
:10194F0090000CE0FF90000FE0FDA3E0FBA3E0F59B
:10195F007F121865E4F574121BE212197812004F0A
:09196F007F147E00121E4180AEBF
:0F1F900043A802E4F589758CA2758A08D28C22C9
:03000B0002000EE2
:10000E00C0E0C0F0C083C082C0D075D000C000C0B8
:10001E0001C002C003C004C005C006C007758CA293
:10002E00758A081219FAD007D006D005D004D0036D
:10003E00D002D001D000D0D0D082D083D0F0D0E08A
:01004E00327F
:0D1F9F0075F75575F7AA75F75A75B6272224
:04004F0075B755220A
:1012B60074F8CC6480CCC86480C8F58204604FC3DF
:1012C600EB9FF5F0EA9E42F0E99D42F0E89C45F07E
:1012D600603C501DE5825FFFE582D313CB5BCBF408
:1012E6002B5582FB50280ABA002409B90020088031
:1012F6001DE5825BFBE582D313CF5FCFF4C3132FCB
:101306005582FF50090EBE00050DBD00010CC3EB52
:101316009FF5F0EA9E42F0E99D42F0E89C45F060B8
:0913260007CC4820E701B3EC22DA
:10132F0075F020800E75F010800575F0087D007E39
:10133F00007F003392D530D5031213C2EC33401027
:10134F00EF33FFEE33FEED33FDEC33FCD5F0ED2242
:0E135F00E5F0247EA2D513CC92E7CDCEFF227E
:101753000218EFE493A3F8E493A34003F68001F2A5
:1017630008DFF48029E493A3F85407240CC8C33397
:10177300C4540F4420C8834004F456800146F6DF66
:10178300E4800B0102040810204080901186E47E5F
:10179300019360BCA3FF543F30E509541FFEE4935B
:1017A300A360010ECF54C025E060A840B8E493A322
:1017B300FAE493A3F8E493A3C8C582C8CAC583CA4D
:1017C300F0A3C8C582C8CAC583CADFE9DEE780BE05
:0112B5000038
:10136D00BC000BBE0029EF8DF084FFADF022E4CC64
:10137D00F875F008EF2FFFEE33FEEC33FCEE9DEC2D
:10138D00984005FCEE9DFE0FD5F0E9E4CEFD22ED73
:10139D00F8F5F0EE8420D21CFEADF075F008EF2FBD
:1013AD00FFED33FD4007985006D5F0F222C398FDAE
:0513BD000FD5F0EA224B
:0E13C200C3E49FFFE49EFEE49DFDE49CFC223C
:1013D000EB9FF5F0EA9E42F0E99D42F0EC6480C894
:0613E00064809845F02234
:00000001FF
