:030000000215F4F2
:1015F40078FFE4F6D8FD9000007F007E02E4F0A3BB
:0A160400DFFCDEFA75816F02164963
:0612DE00021C0000C10427
:061CB8008FAC43AC80225A
:0B1C910075AB0975AF1FD2BAD2AF22AD
:101C1400E4AFADEF75F010A4FFAEF0ADAEEF4DFF45
:011C2400229D
:03005300021B1776
:101B1700C0E0C0F0C0D075D000C005C006C0071235
:101B27001C148E1C8F1DD204D007D006D005D0D030
:051B3700D0F0D0E03207
:101B5C00EF700AFF121CB83004FDC204227F03127E
:081B6C001CB83004FDC2042284
:0217FD00AE0735
:1017FF00E490001CF0A3F0A3F090001CF0A3F0A362
:10180F00F0AF06121B5C90001EE0FF25E02408F8E5
:10181F00A61C08A61DEF25E02408F8E6FC08E6FD47
:10182F0090001DE02DF090001CE03CF090001EE0B9
:10183F0004F0E0C3940A40C990001CE0FEA3E0FF4F
:07184F007C007D0A121084E9
:01185600226F
:101A9C00E490001AF0A3F07F031217FD90001AEEE9
:101AAC00F0A3EFF0C394D0EE9407500CE094329076
:0A1ABC00001AE094007F00227F0171
:011AC60022FD
:101AC700E490001AF0A3F0FF1217FD90001AEEF051
:101AD700A3EFF0C394D0EE9407500CE0943290003B
:091AE7001AE094007F00227F0147
:011AF00022D3
:101C2500C2AF75F75575F7AA75F75A438F01D2AF4D
:011C3500228C
:101C3600C2AF75F75575F7AA75F75A538FFED2AF2F
:011C4600227B
:101BDD00AB07AA06121C258AE18BE28DE3E4F5E43E
:031BED00021C36A1
:101B7400AB07AA06121C258AE18BE28DE38CEB7578
:051B8400E401021C3623
:101C5800121C25E4F5E18FE28DE375E403021C36DE
:101C4700121C25E4F5E18FE275E404AFE3121C36BC
:011C5700226A
:080003008F828E83E493FF223B
:1012E400012C00015E004100130042000E00004189
:1012F400000A0042001700004200110000420008EA
:10130400000042000C0000420015000041000B00E8
:101314004100140041001000410019000260000067
:10132400024F000002520000026500000128000183
:101334005A0001582801593C012728012A3C015C24
:1013440000012B00012D00015F0002540000022364
:101354000000014D00016200015D00012E000151F9
:1013640000016400014E000163000129AA015BAA87
:1013740002250000025600001E2F3F0006005B00FD
:101384004F1066006D007D0007007F006F0079003C
:1013940038005C000000FF00410000004100010033
:1013A4004100020041000300410004004100050027
:0E13B400410006004100070001210001220057
:061AF100C2B17F647E001B
:101AF700E4FDFCC3ED9FEC9E5015E4FBFA0BBB0025
:0F1B0700010AEB64644A70F50DBD00010C80E427
:011B160022AC
:101A0F00E4F580F590F5A0F5B075D39075D201F59A
:101A1F00D575D4EFF5D775D608F5DB75DAF7C2971C
:0F1A2F00C296C2B1D285C290C291C2B0D28222F9
:101B3C00E4FDFCC3ED9FEC9E5015E4FBFA0BBB00DF
:0F1B4C00010AEB640A4A70F50DBD00010C80E43C
:011B5B002267
:071A3E0025E0242FF8E6FF6C
:021A45008F6FA1
:101A4700E4F9E56F30E004D2948002C294C2937F38
:101A5700067E00121AF7D293121AF7E56FC313F531
:051A67006F09B908DD64
:011A6C002257
:1019A100D294E490001FF0A3F0C2937F067E001250
:1019B1001AF7D293121AF790001FE0C313F0309474
:1019C10004E04480F0900020E004F0E0C39408407B
:0619D100D890001FE0FFAA
:0119D70022ED
:021857008F6B95
:10185900E4F9F582F583C280E56BB40104C2958091
:1018690002C2A37F147E00121AF7E4F9D2807F1412
:101879007E00121B3CE58225E0F582E58333F58382
:10188900308103438201C2807F147E00121B3C0910
:10189900B910D9E56BB40104D2958002D2A3AE8305
:0218A900AF820C
:0118AB00221A
:101BF000A907D2927F067E00121AF7C292AF0102A5
:021C00001A4583
:10148000E55975F00A84FDE55975F00A84ABF075ED
:041490006E297F0D35
:061494008F6B8D6C8B6D67
:10149A00900000E0B56B13A3E0B56C0EA3E0B56D48
:1014AA0009A3E0656E7003021539E54EB4011175A2
:1014BA006B0D756C0A756D01900003E0656E606FC7
:1014CA007F01121BF07F40121BF07FC0121BF0E558
:1014DA006B121A3EE56B25E02430F8E6FF121A4536
:1014EA00E56C121A3EE56C25E02430F8E6FF121A84
:1014FA0045E56D121A3EE56D25E02430F8E6FF1247
:10150A001A45E4FF121A45E4FF121A45AF6E121A81
:10151A0045E4FF121A457F8E121BF0D2929000000A
:0F152A00E56BF0A3E56CF0A3E56DF0A3E56EF0C3
:01153900228F
:10168E007F42121BF01219A190001AEFF01219A14D
:10169E0090001BEFF01219A190001CEFF01219A18F
:1016AE0090001DEFF01219A190001EEFF0E4FF90D4
:1016BE00001AE0FE5401D3940040030F8042EE5412
:1016CE0008D3940040047F02803690001BE0FE5445
:1016DE0001D3940040047F038026EE5408D3940077
:1016EE0040047F04801A90001CE0FE5401D3940045
:1016FE0040047F05800AEE5408D3940040027F0612
:01170E0022B8
:071A6D0025E0242FF8E6FF3D
:021A74008F6F72
:101A7600E4F9E56F30E004D2B38002C2B3C2B47FAA
:101A8600067E00121AF7D2B4121AF7E56FC313F5E1
:051A96006F09B908DD35
:011A9B002228
:1019D800D2B3E490001FF0A3F0C2B47F067E0012D9
:1019E8001AF7D2B4121AF790001FE0C313F030B3FD
:1019F80004E04480F0900020E004F0E0C394084044
:061A0800D890001FE0FF72
:011A0E0022B5
:101C0200A907D2B57F067E00121AF7C2B5AF01024C
:021C12001A7442
:10153A00E52A75F00A84FDE52A75F00A84ABF07590
:04154A006E297F0D7A
:06154E008F6B8D6C8B6DAC
:10155400900004E0B56B13A3E0B56C0EA3E0B56D89
:1015640009A3E0656E70030215F3E563B401117518
:101574006B0D756C0A756D01900007E0656E606F08
:101584007F01121C027F40121C027FC0121C02E564
:101594006B121A6DE56B25E02430F8E6FF121A741D
:1015A400E56C121A6DE56C25E02430F8E6FF121A9A
:1015B40074E56D121A6DE56D25E02430F8E6FF122E
:1015C4001A74E4FF121A74E4FF121A74AF6E121A3A
:1015D40074E4FF121A747F8E121C02D2B5900004B8
:0F15E400E56BF0A3E56CF0A3E56DF0A3E56EF009
:0115F30022D5
:10170F007F42121C021219D890001AEFF01219D84A
:10171F0090001BEFF01219D890001CEFF01219D89F
:10172F0090001DEFF01219D890001EEFF0E4FF901B
:10173F00001AE0FE5401D3940040030F8042EE5490
:10174F0008D3940040047F02803690001BE0FE54C3
:10175F0001D3940040047F038026EE5408D39400F5
:10176F0040047F04801A90001CE0FE5401D39400C3
:10177F0040047F05800AEE5408D3940040027F0690
:01178F002237
:071C9C00AD58E4FF021C58E3
:101B8900E4FF121C478F58E558D3945A40067558FC
:051B99003C121C9C221F
:071CA300AD597F01021C583E
:101B9E007F01121C478F59E559D3945A4006755947
:051BAE003C121CA32203
:071CAA00AD58E4FF021C58D5
:101BB300E4FF121C478F58E558D3945A40067558D2
:051BC3003C121CAA22E7
:071CB100AD597F01021C5830
:101BC8007F01121C478F59E559D3945A400675591D
:051BD8003C121CB122CB
:101790000553E553700205520566E566700205655E
:1017A000900011E0FEA3E0FFE4FCFD7B607AEAF923
:1017B000F8D31210E7400E900012E004F07006908B
:1017C0000011E004F0900008E0FEA3E0FFE4FCFD5F
:1017D0007B607AEAF9F8D31210E7400E900009E036
:1017E00004F07006900008E004F00561E561700205
:0D17F00005600550E5507002054F02004FE6
:1018AC00E4FFFEFD0F121857EF5404FDD3940040D3
:1018BC000A05219000137419F0801BE4F521EF78D0
:1018CC0003CEC313CE13D8F9FF7802CEC313CE13B5
:1018DC00D8F9900013F0E521D394054015E54E643A
:1018EC0001600F754E0185286E7B017D0A7F0D12FC
:0218FC00149442
:0118FE0022C7
:1018FF00E4FEFD7F02121857EF5404FDD39400400D
:10190F000A052290000A7419F0801BE4F522EF7883
:10191F0003CEC313CE13D8F9FF7802CEC313CE1361
:10192F00D8F990000AF0E522D394054015E56364D9
:10193F0001600F75630185286E7B017D0A7F0D1293
:02194F00154E33
:011951002273
:1011EF00E4F567F568F569F56AAC60AD6112104B0F
:1011FF007B007A80795E7843120FCD40030212DDB7
:10120F00E4F560F5611218AC300013308509C29611
:10121F00E4F551F529800CD2967551AA8005C29636
:10122F00E4F551121A9C8F68E5681460440460035A
:10123F000212DDE52DB4010AE490000EF0A3F07563
:10124F002D55E52D645560030212DD90000FE0046B
:10125F00F0700690000EE004F0D390000FE09414AD
:10126F0090000EE094004066E4F52DF0A3F0C297D5
:10127F0022E52D7022E52C6003B4021BD2977F1458
:10128F007E00121AF7752D01E490000EF0A3F0F511
:10129F006EFBFDFF12149490000FE004F0700690A7
:1012AF00000EE004F0121AF3D390000FE094EA90CE
:1012BF00000EE094004017C297E4F52DF0A3F085DF
:0E12CF00286E7B027D0A7F0D121494752C0987
:0112DD0022EE
:1010FD00E4F567F568F569F56AAC4FAD5012104B24
:10110D007B007A80795E7843120FCD40030211EE99
:10111D00E4F54FF5501218FF300213308209C291D9
:10112D00E4F564F55B800CD2917564AA8005C291DB
:10113D00E4F564121AC78F68E5681460440460030F
:10114D000211EEE55FB4010AE4900017F0A3F0750B
:10115D005F55E55F645560030211EE900018E004E1
:10116D00F07006900017E004F0D3900018E094148E
:10117D00900017E094004069E4F55FF0A3F0C29091
:10118D0022E55F7022E55E6003B4021BD2907F14EE
:10119D007E00121AF7755F01E4900017F0A3F0F5C9
:1011AD006EFBFDFF12154E90000FE004F0700690DF
:1011BD00000EE004F0121AF3D390000FE094EA90C1
:1011CD00000EE09400401AC290E4F55F900017F015
:1011DD00A3F085286E7B027D0A7F0D12154E755E7C
:0111ED0009F8
:0111EE0022DE
:011CBE002203
:011CBF002202
:0513C300752C027F0201
:0213C8008F682C
:1013CA00E4F569200124E568B40105756902800322
:1013DA00756916900013E0C394235002802290008E
:1013EA0013E0FFC3946450528029E568B40105757F
:1013FA006902800375691A900013E0C394235009A7
:10140A0085696E7B0C7D0B802D900013E0FFC394E1
:10141A00645027EFFB7A007C007D0A7E001210845C
:10142A00AD07C0057C007D0AAF037E00121084ABB5
:10143A000585696ED0057F0D8038900013E0FBFFAB
:10144A007E007C007D64121084AA07EB249CFFE4D2
:10145A0034FFFE7C007D0A121084AD07C005E0FF50
:10146A007E007C007D0A121084AB0585696EAF028E
:05147A00D005121494DE
:01147F00224A
:10081D00E4F567E52CB40A004003020FC9900831D6
:10082D00F828287302084F0208950208D2020B1807
:10083D00020C37020D5A020DE4020E31020EFB02BC
:10084D000FC0E52D6003020FCCD3E5539437E5526D
:10085D0094055003020FCCE4F552F553900013E0CC
:10086D0094235009756E167B0C7D0B8012E558751F
:10087D00F00A84FDE55875F00A84ABF0756E167FAD
:10088D000D121494752C012212168EEF6003020FB7
:10089D00CCD200F554F555C201900013E0C394235A
:1008AD005009756E167B0C7D0B8012E55875F00A9C
:1008BD0084FDE55875F00A84ABF0756E167F0D1248
:1008CD001494020D4CE52D6003020FCC12168E8F81
:1008DD0067E5676405702B1218AC900013E0F55CAA
:1008ED00754DAA200105752C038003752C04E4F5C4
:1008FD0054F555900011F0A3F0F525F526D2B1026F
:10090D000F14E567B40221E54D701DD2B17F64FE71
:10091D00121AF7754DBBE4F554F555F552F5537FA5
:10092D00011213C8752C0522E5676403705630015A
:10093D0002C201E55875F00A84FDE55875F00A8488
:10094D00ABF0756E167F0D121494E4F552F5530548
:10095D0055E55570020554D39414E5549400500395
:10096D00020FCC752C07E4F554F555F552F553E50A
:10097D005875F00A84FDE55875F00A84ABF0756E74
:10098D0025020EF6E56764047054200102D201E5DC
:10099D005975F00A84FDE55975F00A84ABF0756E52
:1009AD001A7F0D1214940555E55570020554E4F5A2
:1009BD0052F553D3E5559414E55494005003020FAA
:1009CD00CC752C08E4F554F555E55975F00A84FD00
:1009DD00E55975F00A84ABF0756E29020EF6AC522E
:1009ED00AD53E412104BE4FBFA79B27843120FCDFC
:1009FD004003020FCCE4F554F555F54DF552F55382
:100A0D00200167E52854109400400FE551B4AA0A5F
:100A1D00E529B4AA057528068003752816900013DC
:100A2D00E0C39422500A85286E7B0C7D0B020EF6D6
:100A3D00900013E0FFD394235003020FCCEF946486
:100A4D005026EFFB7A007C007D0A7E00121084ADEB
:100A5D0007C0057C007D0AAF037E00121084AB0534
:100A6D0085286ED005020EF68066E5285410D394C5
:100A7D0000400FE551B4AA0AE529B4AA0575280A64
:100A8D00800375281A900013E0C39422500A756EE6
:100A9D001A7B0C7D0B020EF6900013E0FFD394230E
:100AAD005003020FCCEF94645026EFFB7A007C00CC
:100ABD007D0A7E00121084AD07C0057C007D0AAF53
:100ACD00037E00121084AB0585286ED005020EF64C
:100ADD00900013E0FBFF7E007C007D64121084AA61
:100AED0007EB249CFFE434FFFE7C007D0A1210848A
:100AFD00AD07C005E0FF7E007C007D0A121084ABBF
:100B0D000585286EAF02D005020FBDAC52AD53E482
:100B1D0012104B7B007A80795E7843120FCD400323
:100B2D00020BBBE4F552F5530526E52670020525AB
:100B3D00900013E0C394235009756E147B0C7D0B4C
:100B4D00802D900013E0FFC394645027EFFB7A00D3
:100B5D007C007D0A7E00121084AD07C0057C007DEF
:100B6D000AAF037E00121084AB05756E14D0057F9D
:100B7D000D8038900013E0FBFF7E007C007D641239
:100B8D001084AA07EB249CFFE434FFFE7C007D0A51
:100B9D00121084AD07C005E0FF7E007C007D0A12B7
:100BAD001084AB05756E14AF02D00512149490002D
:100BBD0013E0F55CC3955840220555E555700205C7
:100BCD0054D39406E5549400402CD3900012E09435
:100BDD00B1900011E09408401D8010E4F554F555D6
:100BED00D3E5269468E5259401400B121AF1E4F53E
:100BFD0054F555752C0212168E8F5DE55DB4050703
:100C0D00E54D7003020DC1E54DB40114E55D7010A5
:100C1D00C2B17F64FE121AF7E4F554F555020D4C7E
:100C2D00E55D6003020FCCF54D22AC52AD53E412DD
:100C3D00104B7B007A80795E7843120FCD40030212
:100C4D000CDAE4F552F5530526E5267002052590DC
:100C5D000013E0C394235009756E187B0C7D0B8037
:100C6D002D900013E0FFC394645027EFFB7A007CB6
:100C7D00007D0A7E00121084AD07C0057C007D0A40
:100C8D00AF037E00121084AB05756E18D0057F0D75
:100C9D008038900013E0FBFF7E007C007D64121015
:100CAD0084AA07EB249CFFE434FFFE7C007D0A122E
:100CBD001084AD07C005E0FF7E007C007D0A121098
:100CCD0084AB05756E18AF02D00512149490001305
:100CDD00E0F55CC3955940250555E5557002055461
:100CED00D39406E5549400402FD3900012E094B1B4
:100CFD00900011E094084020121AF18018E4F55488
:100D0D00F555D3E5269468E5259401400B121AF1AB
:100D1D00E4F554F555752C0212168E8F5DE55DB414
:100D2D000507E54D7003020DC1E54DB40115E55DF7
:100D3D007011C2B17F64FE121AF7E4F554F55575C2
:100D4D002C0222E55D6003020FCCF54D2212168EAA
:100D5D008F5DE55D6402703C0555E55570020554E7
:100D6D00D39414E5549400403CE4F554F555754D79
:100D7D00BBC200900011F0A3F0D297752C06200194
:100D8D0005756E168003756E1A7B037D037F031246
:100D9D0014948011D3E5539437E55294054006120F
:100DAD0013C3121AF1E55D64056005E55DB4020833
:100DBD00E54D7004754D0122E54DB40110E55D70F2
:100DCD000C1213C3C2B17F647E00020F35E55D6066
:100DDD0003020FCCF54D2212168EEF64027020E542
:100DED004D701CD3E553947AE552940340111213C0
:100DFD00C3C2B1C297121AF3D200754DBB800C124B
:100E0D00168EEF7006F54DF552F553D3900012E0A6
:100E1D009462900011E094115003020FCCC297E43C
:100E2D00F0A3F02212168EEF6406700BE558C394F2
:100E3D005A50150558801112168EEF64017029E570
:100E4D0058D3942840021558E55875F00A84FDE5ED
:100E5D005875F00A84ABF0756E257F0D121494123F
:100E6D001AF3E4F554F5552212168EEF640370361D
:100E7D000555E55570020554D39414E5549400506E
:100E8D0003020FCC121C9C752C02D200E4F554F514
:100E9D0055E55875F00A84FDE55875F00A84ABF0F8
:100EAD00756E16020F70AC52AD53E412104BE4FB8D
:100EBD00FA79B27843120FCD4003020FCCE4F5520C
:100ECD00F553900010E0B421057425F080069000D4
:100EDD00107421F0E55875F00A84FDE55875F00A97
:100EED0084ABF0900010E0F56E7F0D020FBD121671
:100EFD008EEF64067016E559C3945A5002055912C7
:100F0D001480E4F554F5557F64FE801C12168EEFA7
:100F1D0064017017E559D3942840021559121480B5
:100F2D00E4F554F5557F64FE021AF712168EEF6440
:100F3D0004703B0555E55570020554D39414E554E2
:100F4D009400407B121CA3752C02D200E4F554F5DD
:100F5D0055E55975F00A84FDE55975F00A84ABF035
:100F6D00756E1A7F0D121494E4F552F55322AC529E
:100F7D00AD53E412104BE4FBFA79B27843120FCD66
:100F8D00503DE4F552F553900010E0B4210574295D
:100F9D00F080069000107421F0E55975F00A84FD7B
:100FAD00E55975F00A84ABF0900010E0F56E7F0DF9
:0F0FBD00021494C200C2B1C296C29722E4F52C6E
:010FCC002202
:10005600E4F567E55EB40A00400302081990006AF9
:10006600F82828730200880200CE02010B02035111
:1000760002047202059902062F02068102074B024C
:100086000810E55F600302081CD3E5669437E56552
:100096009405500302081CE4F565F56690000AE035
:1000A60094235009756E167B0C7D0B8012E527751F
:1000B600F00A84FDE52775F00A84ABF0756E167FAD
:1000C6000D12154E755E012212170FEF600302081E
:1000D6001CD202F523F524C20390000AE0C3942340
:1000E6005009756E167B0C7D0B8012E52775F00A9C
:1000F60084FDE52775F00A84ABF0756E167F0D1248
:10010600154E02058BE55F600302081C12170F8F60
:1001160067E5676405702B1218FF90000AE0F52B5F
:100126007562AA200305755E038003755E04E4F517
:1001360023F524900008F0A3F0F556F557D2B00247
:100146000764E567B40221E562701DD2B07F64FEE4
:10015600121AF77562BBE4F523F524F565F5667F9B
:10016600011213C8755E0522E567640370563003F5
:1001760002C203E52775F00A84FDE52775F00A84B7
:10018600ABF0756E167F0D12154EE4F565F5660536
:1001960024E52470020523D39414E5239400500328
:1001A60002081C755E07E4F523F524F565F566E59A
:1001B6002775F00A84FDE52775F00A84ABF0756EA5
:1001C60025020746E56764047054200302D203E55E
:1001D6002A75F00A84FDE52A75F00A84ABF0756E7F
:1001E6001A7F0D12154E0524E52470020523E4F549
:1001F60065F566D3E5249414E523940050030208BC
:100206001C755E08E4F523F524E52A75F00A84FDDD
:10021600E52A75F00A84ABF0756E29020746AC65CF
:10022600AD66E412104BE4FBFA79B27843120FCDB7
:10023600400302081CE4F523F524F562F565F5662E
:10024600200367E55A54109400400FE564B4AA0AE7
:10025600E55BB4AA05755A068003755A1690000A1E
:10026600E0C39422500A855A6E7B0C7D0B0207462A
:1002760090000AE0FFD39423500302081CEF946415
:100286005026EFFB7A007C007D0A7E00121084ADBA
:1002960007C0057C007D0AAF037E00121084AB0503
:1002A600855A6ED0050207468066E55A5410D394E7
:1002B60000400FE564B4AA0AE55BB4AA05755A0ABC
:1002C6008003755A1A90000AE0C39422500A756E8C
:1002D6001A7B0C7D0B02074690000AE0FFD394239D
:1002E600500302081CEF94645026EFFB7A007C0052
:1002F6007D0A7E00121084AD07C0057C007D0AAF22
:10030600037E00121084AB05855A6ED0050207469F
:1003160090000AE0FBFF7E007C007D64121084AA38
:1003260007EB249CFFE434FFFE7C007D0A12108458
:10033600AD07C005E0FF7E007C007D0A121084AB8D
:1003460005855A6EAF02D00502080DAC65AD66E4B0
:1003560012104B7B007A80795E7843120FCD4003F2
:100366000203F4E4F565F5660557E5577002055690
:1003760090000AE0C394235009756E147B0C7D0B24
:10038600802D90000AE0FFC394645027EFFB7A00AB
:100396007C007D0A7E00121084AD07C0057C007DBE
:1003A6000AAF037E00121084AB05756E14D0057F6C
:1003B6000D803890000AE0FBFF7E007C007D641211
:1003C6001084AA07EB249CFFE434FFFE7C007D0A20
:1003D600121084AD07C005E0FF7E007C007D0A1286
:1003E6001084AB05756E14AF02D00512154E900041
:1003F6000AE0F52BC3952740220524E52470020563
:1004060023D39406E5239400402ED3900009E0946C
:10041600B1900008E09408401F8010E4F523F5240D
:10042600D3E5579468E5569401400DC2B0121AF30D
:10043600E4F523F524755E0212170F8F5DE55DB4B2
:100446000507E5627003020607E562B40114E55D7F
:100456007010C2B07F64FE121AF7E4F523F5240289
:10046600058BE55D600302081CF56222AC65AD668E
:10047600E412104B7B007A80795E7843120FCD40F0
:1004860003020515E4F565F5660557E5577002059F
:100496005690000AE0C394235009756E187B0C7DB4
:1004A6000B802D90000AE0FFC394645027EFFB7A7F
:1004B600007C007D0A7E00121084AD07C0057C001A
:1004C6007D0AAF037E00121084AB05756E18D00549
:1004D6007F0D803890000AE0FBFF7E007C007D6483
:1004E600121084AA07EB249CFFE434FFFE7C007DF7
:1004F6000A121084AD07C005E0FF7E007C007D0A6D
:10050600121084AB05756E18AF02D00512154E9009
:10051600000AE0F55CC3952A40270524E52470020D
:100526000523D39406E52394004033D3900009E0D5
:1005360094B1900008E094084024C2B0121AF380E7
:100546001AE4F523F524D3E5579468E5569401405B
:100556000DC2B0121AF3E4F523F524755E021217E4
:100566000F8F5DE55DB40507E5627003020607E5DA
:1005760062B40115E55D7011C2B07F64FE121AF710
:10058600E4F523F524755E0222E55D600302081C8E
:10059600F5622212170F8F5DE55D6402703C05243B
:1005A600E52470020523D39414E52394004043E424
:1005B600F523F5247562BBC202900008F0A3F0D2C1
:1005C60090755E06200305756E168003756E1A7BA0
:1005D600037D037F0312154E8018D3E5669437E535
:1005E600659405400D755E027F021213C8C2B012F3
:1005F6001AF3E55D64056005E55DB40208E54D7036
:100606000475620122E562B40115E55D7011755E3F
:10061600027F021213C8C2B07F647E00020785E51E
:100626005D600302081CF5622212170FEF64027068
:1006360025E5627021D3E566947AE5659403401654
:10064600755E027F021213C8C2B0C290121AF3D2AC
:10065600027562BB800C12170FEF7006F562F56526
:10066600F566D3900009E09462900008E09411507A
:100676000302081CC290E4F0A3F02212170FEF64E5
:1006860006700BE527C3945A5015052780111217DB
:100696000FEF64017029E527D3942840021527E55A
:1006A6002775F00A84FDE52775F00A84ABF0756EB0
:1006B600257F0D12154E121AF3E4F523F5242212A6
:1006C600170FEF640370360524E52470020523D363
:1006D6009414E5239400500302081C121CAA755EAC
:1006E60002D202E4F523F524E52775F00A84FDE538
:1006F6002775F00A84ABF0756E160207C0AC65ADBF
:1007060066E412104BE4FBFA79B27843120FCD403F
:100716000302081CE4F565F566900019E0B42105AE
:100726007425F080069000197421F0E52775F00A0B
:1007360084FDE52775F00A84ABF0900019E0F56EAC
:100746007F0D02080D12170FEF64067016E52AC317
:10075600945A5002052A12153AE4F523F5247F64CB
:10076600FE801C12170FEF64017017E52AD3942838
:100776004002152A12153AE4F523F5247F64FE0299
:100786001AF712170FEF6404703B0524E524700274
:100796000523D39414E5239400407B121CB1755EA7
:1007A60002D202E4F523F524E52A75F00A84FDE574
:1007B6002A75F00A84ABF0756E1A7F0D12154EE499
:1007C600F565F56622AC65AD66E412104BE4FBFAFE
:1007D60079B27843120FCD503DE4F565F566900089
:1007E60019E0B421057429F080069000197421F0EF
:1007F600E52A75F00A84FDE52A75F00A84ABF090C7
:100806000019E0F56E7F0D02154EC202C2B0C2910C
:06081600C29022E4F55E31
:01081C0022B9
:1019520075E620121A0F121C68121C77121C91D203
:10196200AFD281121B89121B9E121BB3121BC875A8
:101972006EFF7B0E7D0E7F0E121494756EFF7B0E32
:101982007D0E7F0E12154E1211EF1210FD12081D60
:0F19920012005612004F7F147E00121AF780E8E1
:0F1C680043A802E4F589758CA2758A08D28C22F4
:03000B0002000EE2
:10000E00C0E0C0F0C083C082C0D075D000C000C0B8
:10001E0001C002C003C004C005C006C007758CA293
:10002E00758A08121790D007D006D005D004D003D9
:10003E00D002D001D000D0D0D082D083D0F0D0E08A
:01004E00327F
:0D1C770075F75575F7AA75F75A75B627224F
:04004F0075B755220A
:0D1C840075F75575F7AA75F75AE4F5B62205
:100FCD0074F8CC6480CCC86480C8F58204604FC3CB
:100FDD00EB9FF5F0EA9E42F0E99D42F0E89C45F06A
:100FED00603C501DE5825FFFE582D313CB5BCBF4F4
:100FFD002B5582FB50280ABA002409B9002008801D
:10100D001DE5825BFBE582D313CF5FCFF4C3132FB6
:10101D005582FF50090EBE00050DBD00010CC3EB3E
:10102D009FF5F0EA9E42F0E99D42F0E89C45F060A4
:09103D0007CC4820E701B3EC22C6
:1010460075F020800E75F010800575F0087D007E25
:10105600007F003392D530D5031210D9EC334010FF
:10106600EF33FFEE33FEED33FDEC33FCD5F0ED222E
:0E107600E5F0247EA2D513CC92E7CDCEFF226A
:10160E00021952E493A3F8E493A34003F68001F287
:10161E0008DFF48029E493A3F85407240CC8C333DD
:10162E00C4540F4420C8834004F456800146F6DFAC
:10163E00E4800B01020408102040809012DEE47E4C
:10164E00019360BCA3FF543F30E509541FFEE493A1
:10165E00A360010ECF54C025E060A840B8E493A368
:10166E00FAE493A3F8E493A3C8C582C8CAC583CA93
:10167E00F0A3C8C582C8CAC583CADFE9DEE780BE4B
:0113C200002A
:10108400BC000BBE0029EF8DF084FFADF022E4CC50
:10109400F875F008EF2FFFEE33FEEC33FCEE9DEC19
:1010A400984005FCEE9DFE0FD5F0E9E4CEFD22ED5F
:1010B400F8F5F0EE8420D21CFEADF075F008EF2FA9
:1010C400FFED33FD4007985006D5F0F222C398FD9A
:0510D4000FD5F0EA2237
:0E10D900C3E49FFFE49EFEE49DFDE49CFC2228
:1010E700EB9FF5F0EA9E42F0E99D42F0EC6480C880
:0610F70064809845F02220
:00000001FF
