:03000000020BDB15
:100BDB0078FFE4F6D8FD9000007F007E01E4F0A3DF
:0A0BEB00DFFCDEFA75815C020C30BD
:060C7500021C0000C10298
:060085008FAC43AC8022A9
:0B10D60075AB8075AF1FD2BAD2AF22FD
:10106600E4AFADEF75F010A4FFAEF0ADAEEF4DFFFF
:011076002257
:03005300020F5940
:100F5900C0E0C0F0C0D075D000C005C006C00712FF
:100F690010668E1C8F1DD202D007D006D005D0D0B6
:050F7900D0F0D0E032D1
:100FC000AE077F071200853002FDEE25E02408F809
:080FD000A61C08A61DC20222A6
:020DD5008F5835
:100DD700E4900012F0A3F0A3F0900012F0A3F0A3A8
:100DE700F0900014E0FFC3940A5022120FC0E025D0
:100DF700E02408F8E6FE08E6FF900013E02FF090E5
:100E07000012E03EF0900014E004F080D49000124D
:0C0E1700E0FEA3E0FF7C007D0A1208F55D
:010E230022AC
:100F0800E490000EF0A3F07F07120DD590000EEECE
:100F1800F0A3EFF0C394D0EE9407500CE094329015
:0A0F2800000EE094007F00227F011C
:010F3200229C
:10107700C2AF75F75575F7AA75F75A438F01D2AF07
:011087002246
:10108800C2AF75F75575F7AA75F75A538FFED2AFE9
:011098002235
:10104100AB07AA061210778AE18BE28DE3E4F5E49F
:0310510002108802
:100FEE00AB07AA061210778AE18BE28DE38CEB75C4
:050FFE00E4010210886F
:1010AA00121077E4F5E18FE28DE375E4030210880C
:10109900121077E4F5E18FE275E404AFE3121088EA
:0110A9002224
:080003008F828E83E493FF223B
:100C7B0001270041000C00420007000042000A005F
:100C8B000042000500004100040041000900410042
:100C9B000D0002520000024A0000012500014E28FF
:100CAB00014F3C015000012800024C00000147009D
:100CBB000151000149000148000126AA022300004E
:100CCB001E293F0006005B004F1066006D007D0083
:100CDB0007007F006F00790038005C000000FF0008
:100CEB0041000000410001004100020041000300EF
:060CFB00012100012200AE
:060F3300C2917F647E0004
:100F3900E4FDFCC3ED9FEC9E5015E4FBFA0BBB00EE
:0F0F4900010AEB64644A70F50DBD00010C80E4F1
:010F58002276
:100F7E00E4F580F590F5B075D38075D2A8F5D575EA
:100F8E00D4DFF5DB75DA0ED286C290C285C291D25D
:020F9E00B0227F
:100FA000E4FDFCC3ED9FEC9E5015E4FBFA0BBB0087
:0F0FB000010AEB640A4A70F50DBD00010C80E4E4
:010FBF00220F
:0700560025E02429F8E6FF74
:02005D008F5CB6
:10005F00E4F9E55C30E004D2868002C286C2837F79
:10006F00067E00120F39D283120F39E55CC313F5E8
:05007F005C09B908DD79
:010084002259
:100E9A00D286E4900013F0A3F0C2837F067E00128C
:100EAA000F39D283120F39900013E0C313F0308642
:100EBA0004E04480F0900014E004F0E0C394084099
:060ECA00D8900013E0FFC8
:010ED00022FF
:100E2400E4F9F582F583C296C2B17F14FE120F393C
:100E3400D2967F147E00120FA0E58225E0F582E5AC
:100E44008333F583309503438201C2967F147E0079
:0D0E5400120FA009B910D9D2B1AE83AF8240
:010E6100226E
:100FD800E4FFFEF51EF51F120E24EF7802CEC313B0
:050FE800CE13D8F9FF53
:010FED0022E1
:10105400A907D2847F067E00120F39C284AF010231
:02106400005D2D
:100B2100E54F75F00A84FDE54F75F00A84ABF07569
:040B31005B297F0DB0
:060B35008F588D598B5A08
:100B3B00900000E0B55813A3E0B5590EA3E0B55AE9
:100B4B0009A3E0655B7003020BDAE548B40111758C
:100B5B00580D75590A755A01900003E0655B606F7B
:100B6B007F011210547F401210547FC0121054E5B5
:100B7B0058120056E55825E0242AF8E6FF12005DCE
:100B8B00E559120056E55925E0242AF8E6FF120034
:100B9B005DE55A120056E55A25E0242AF8E6FF12C5
:100BAB00005DE4FF12005DE4FF12005DAF5B12001D
:100BBB005DE4FF12005D7F8E121054D28490000012
:0F0BCB00E558F0A3E559F0A3E55AF0A3E55BF078
:010BDA0022F8
:100D02007F42121054120E9A90000EEFF0120E9AB9
:100D120090000FEFF0120E9A900010EFF0120E9A60
:100D2200900011EFF0120E9A900012EFF0E4FF9093
:100D3200000EE0FE5401D3940040030F8042EE54B3
:100D420008D3940040047F02803690000FE0FE54E6
:100D520001D3940040047F038026EE5408D394000C
:100D620040047F04801A900010E0FE5401D39400E6
:100D720040047F05800AEE5408D3940040027F06A7
:010D8200224E
:0710E100AD4EE4FF0210AA6E
:10100300E4FF1210998F4EE54ED3945A4006754E65
:051013003C1210E12277
:0710E800AD4F7F010210AAC9
:101018007F011210998F4FE54FD3945A4006754FB0
:051028003C1210E8225B
:100E6200054BE54B7002054A90000AE0FEA3E0FF45
:100E7200E4FCFD7B607AEAF9F8D3120958400E903F
:100E8200000BE004F0700690000AE004F00553E560
:080E9200537002055202004FEB
:100D8300E4FFFEFD120E24EF5404FDD39400400A49
:100D9300052190000C7419F0801BE4F521EF780312
:100DA300CEC313CE13D8F9FF7802CEC313CE13D814
:100DB300F990000CF0E521D394054015E548640152
:100DC300600F75480185255B7B017D0A7F0D120B42
:010DD30035EA
:010DD40022FC
:10096E00E4F554F555F556F557AC52AD531208BC97
:10097E007B007A80795E784312083E4003020A6358
:10098E00E4F552F553120D8330001830B009C285CC
:10099E00E4F549F5268011E528B4010CD285754998
:1009AE00AA8005C285E4F549120F088F55E5551446
:1009BE006043046003020A63E528B4010AE4900070
:1009CE0007F0A3F0752855E528B45525900008E0EA
:1009DE0004F07006900007E004F0D3900008E09455
:1009EE0014900007E094004008E4F528F0A3F0C24C
:1009FE0090E4F52222E5287022E5276003B4021B5D
:100A0E00D2907F147E00120F39752801E4900007F2
:100A1E00F0A3F0F55BFBFDFF120B35900008E00430
:100A2E00F07006900007E004F0120F35E4F522D3C3
:100A3E00900008E094EA900007E094004017C290FE
:100A4E00E4F528F0A3F085255B7B027D0A7F0D126D
:050A5E000B35752709AE
:010A63002270
:0110F30022DA
:0110F40022D9
:050A64007527027F026E
:020A69008F55A7
:100A6B00E4F556200124E555B401057556028003C3
:100A7B0075561690000CE0C3942350028022900010
:100A8B000CE0FFC3946450528029E555B401057501
:100A9B005602800375561A90000CE0C3942350093C
:100AAB0085565B7B0C7D0B802D90000CE0FFC39477
:100ABB00645027EFFB7A007C007D0A7E001208F55C
:100ACB00AD07C0057C007D0AAF037E001208F5ABB5
:100ADB000585565BD0057F0D803890000CE0FBFF41
:100AEB007E007C007D641208F5AA07EB249CFFE4D2
:100AFB0034FFFE7C007D0A1208F5AD07C005E0FF50
:100B0B007E007C007D0A1208F5AB0585565BAF02B3
:050B1B00D005120B35AE
:010B200022B2
:10008E00E4F554E527B40A00400302083A9000A2B2
:10009E00F82828730200C0020106020143020389F8
:1000AE000204A80205CB0206550206A202076C0244
:1000BE000831E528600302083DD3E54B9437E54A45
:1000CE009405500302083DE4F54AF54B90000CE010
:1000DE0094235009755B167B0C7D0B8012E54E75D3
:1000EE00F00A84FDE54E75F00A84ABF0755B167F61
:1000FE000D120B3575270122120D02EF6003020857
:10010E003DD200F54CF54DC20190000CE0C3942396
:10011E005009755B167B0C7D0B8012E54E75F00A4F
:10012E0084FDE54E75F00A84ABF0755B167F0D12FB
:10013E000B350205BDE528600302083D120D028F46
:10014E0054E5546405702B120D8390000CE0F550AD
:10015E007547AA2001057527038003752704E4F56A
:10016E004CF54D90000AF0A3F0F523F524D2910240
:10017E000785E554B40221E547701DD2917F64FED8
:10018E00120F397547BBE4F54CF54DF54AF54B7F2B
:10019E0001120A6975270522E55464037056300171
:1001AE0002C201E54E75F00A84FDE54E75F00A8433
:1001BE00ABF0755B167F0D120B35E4F54AF54B056A
:1001CE004DE54D7002054CD39414E54C940050034C
:1001DE0002083D752707E4F54CF54DF54AF54BE55C
:1001EE004E75F00A84FDE54E75F00A84ABF0755B32
:1001FE0025020767E55464047054200102D201E51C
:10020E004F75F00A84FDE54F75F00A84ABF0755B0F
:10021E001A7F0D120B35054DE54D7002054CE4F5B8
:10022E004AF54BD3E54D9414E54C94005003020867
:10023E003D752708E4F54CF54DE54F75F00A84FD44
:10024E00E54F75F00A84ABF0755B29020767AC4A7F
:10025E00AD4BE41208BCE4FBFA79B2784312083EC7
:10026E00400302083DE4F54CF54DF547F54AF54BD4
:10027E00200167E52554109400400FE549B4AA0A01
:10028E00E526B4AA05752506800375251690000C83
:10029E00E0C39422500A85255B7B0C7D0B02076719
:1002AE0090000CE0FFD39423500302083DEF9464BA
:1002BE005026EFFB7A007C007D0A7E001208F5AD19
:1002CE0007C0057C007D0AAF037E001208F5AB0562
:1002DE0085255BD0050207678066E5255410D3940B
:1002EE0000400FE549B4AA0AE526B4AA0575250A09
:1002FE00800375251A90000CE0C39422500A755B9A
:10030E001A7B0C7D0B02076790000CE0FFD3942341
:10031E00500302083DEF94645026EFFB7A007C00F8
:10032E007D0A7E001208F5AD07C0057C007D0AAF80
:10033E00037E001208F5AB0585255BD00502076725
:10034E0090000CE0FBFF7E007C007D641208F5AA95
:10035E0007EB249CFFE434FFFE7C007D0A1208F5B7
:10036E00AD07C005E0FF7E007C007D0A1208F5ABEC
:10037E000585255BAF02D00502082EAC4AAD4BE4D5
:10038E001208BC7B007A80795E784312083E4003E7
:10039E0002042CE4F54AF54B0524E52470020523EE
:1003AE0090000CE0C394235009755B147B0C7D0BFD
:1003BE00802D90000CE0FFC394645027EFFB7A0071
:1003CE007C007D0A7E001208F5AD07C0057C007D1D
:1003DE000AAF037E001208F5AB05755B14D0057FDE
:1003EE000D803890000CE0FBFF7E007C007D6412D7
:1003FE0008F5AA07EB249CFFE434FFFE7C007D0A7F
:10040E001208F5AD07C005E0FF7E007C007D0A12E4
:10041E0008F5AB05755B14AF02D005120B359000D5
:10042E000CE0F550C3954E4022054DE54D7002058A
:10043E004CD39406E54C9400402CD390000BE094E2
:10044E00B190000AE09408401D8010E4F54CF54D83
:10045E00D3E5249468E5239401400B120F33E4F5A1
:10046E004CF54D752702120D028F51E551B405075B
:10047E00E5477003020632E547B40114E5517010EA
:10048E00C2917F64FE120F39E4F54CF54D0205BDA5
:10049E00E551600302083DF54722AC4AAD4BE4122C
:1004AE0008BC7B007A80795E784312083E400302D6
:1004BE00054BE4F54AF54B0524E52470020523901F
:1004CE00000CE0C394235009755B187B0C7D0B80E8
:1004DE002D90000CE0FFC394645027EFFB7A007C54
:1004EE00007D0A7E001208F5AD07C0057C007D0A6E
:1004FE00AF037E001208F5AB05755B18D0057F0DB6
:10050E00803890000CE0FBFF7E007C007D641208BA
:10051E00F5AA07EB249CFFE434FFFE7C007D0A1253
:10052E0008F5AD07C005E0FF7E007C007D0A1208CD
:10053E00F5AB05755B18AF02D005120B3590000CAC
:10054E00E0F550C3954F4025054DE54D7002054C25
:10055E00D39406E54C9400402FD390000BE094B159
:10056E0090000AE094084020120F338018E4F54CF6
:10057E00F54DD3E5249468E5239401400B120F3317
:10058E00E4F54CF54D752702120D028F51E551B46D
:10059E000507E5477003020632E547B40115E5513C
:1005AE007011C2917F64FE120F39E4F54CF54D7552
:1005BE00270222E551600302083DF54722120D0283
:1005CE008F51E5516402703C054DE54D7002054CAE
:1005DE00D39414E54C9400403CE4F54CF54D75472E
:1005EE00BBC20090000AF0A3F0D29075270620013E
:1005FE0005755B168003755B1A7B037D037F031203
:10060E000B358011D3E54B9437E54A94054006121D
:10061E000A64120F33E55164056005E551B4020812
:10062E00E547700475470122E547B40110E55170A6
:10063E000C120A64C2917F647E000207A6E5516027
:10064E000302083DF54722120D02EF64027020E509
:10065E0047701CD3E54B947AE54A94034011120A75
:10066E0064C291C290120F35D2007547BB800C1236
:10067E000D02EF7006F547F54AF54BD390000BE0EF
:10068E00946290000AE09411500302083DC290E477
:10069E00F0A3F022120D02EF6406700BE54EC39428
:1006AE005A5015054E8011120D02EF64017029E5A6
:1006BE004ED394284002154EE54E75F00A84FDE5A2
:1006CE004E75F00A84ABF0755B257F0D120B35125B
:1006DE000F35E4F54CF54D22120D02EF6403703622
:1006EE00054DE54D7002054CD39414E54C94005025
:1006FE000302083D1210E1752702D200E4F54CF515
:10070E004DE54E75F00A84FDE54E75F00A84ABF0AA
:10071E00755B160207E1AC4AAD4BE41208BCE4FB74
:10072E00FA79B2784312083E400302083DE4F54AD6
:10073E00F54B900009E0B421057425F08006900079
:10074E00097421F0E54E75F00A84FDE54E75F00A48
:10075E0084ABF0900009E0F55B7F0D02082E120DC0
:10076E0002EF64067016E54FC3945A5002054F12FD
:10077E000B21E4F54CF54D7F64FE801C120D02EF4B
:10078E0064017017E54FD394284002154F120B21C8
:10079E00E4F54CF54D7F64FE020F39120D02EF6445
:1007AE0004703B054DE54D7002054CD39414E54C99
:1007BE009400407B1210E8752702D200E4F54CF548
:1007CE004DE54F75F00A84FDE54F75F00A84ABF0E8
:1007DE00755B1A7F0D120B35E4F54AF54B22AC4AC8
:1007EE00AD4BE41208BCE4FBFA79B2784312083E32
:1007FE00503DE4F54AF54B900009E0B4210574290B
:10080E00F080069000097421F0E54F75F00A84FD22
:10081E00E54F75F00A84ABF0900009E0F55B7F0DB3
:0F082E00020B35C200C291C285C29022E4F527A9
:01083D002298
:100ED10075E620120F7E1210BA12102D1210D6D202
:100EE100AFD295121003121018755BFF7B0E7D0EA9
:100EF1007F0E120B3512096E12008E12004F7F14F5
:070F01007E00120F3980EEA3
:0F10BA0043A802E4F589758CA2758A08D28C22AE
:03000B0002000EE2
:10000E00C0E0C0F0C083C082C0D075D000C000C0B8
:10001E0001C002C003C004C005C006C007758CA293
:10002E00758A08120E62D007D006D005D004D00310
:10003E00D002D001D000D0D0D082D083D0F0D0E08A
:01004E00327F
:10102D00C2AF75F75575F7AA75F75A75B627E4F57A
:04103D009AD2AF2272
:04004F0075B755220A
:0D10C90075F75575F7AA75F75AE4F5B622CC
:03008B000210EF71
:0410EF0075800032D6
:10083E0074F8CC6480CCC86480C8F58204604FC361
:10084E00EB9FF5F0EA9E42F0E99D42F0E89C45F000
:10085E00603C501DE5825FFFE582D313CB5BCBF48A
:10086E002B5582FB50280ABA002409B900200880B3
:10087E001DE5825BFBE582D313CF5FCFF4C3132F4D
:10088E005582FF50090EBE00050DBD00010CC3EBD5
:10089E009FF5F0EA9E42F0E99D42F0E89C45F0603B
:0908AE0007CC4820E701B3EC225D
:1008B70075F020800E75F010800575F0087D007EBC
:1008C700007F003392D530D50312094AEC3340102C
:1008D700EF33FFEE33FEED33FDEC33FCD5F0ED22C5
:0E08E700E5F0247EA2D513CC92E7CDCEFF2201
:100BF500020ED1E493A3F8E493A34003F68001F237
:100C050008DFF48029E493A3F85407240CC8C33300
:100C1500C4540F4420C8834004F456800146F6DFCF
:100C2500E4800B0102040810204080900C75E47EDE
:100C3500019360BCA3FF543F30E509541FFEE493C4
:100C4500A360010ECF54C025E060A840B8E493A38B
:100C5500FAE493A3F8E493A3C8C582C8CAC583CAB6
:100C6500F0A3C8C582C8CAC583CADFE9DEE780BE6E
:010D010000F1
:1008F500BC000BBE0029EF8DF084FFADF022E4CCE7
:10090500F875F008EF2FFFEE33FEEC33FCEE9DECAF
:10091500984005FCEE9DFE0FD5F0E9E4CEFD22EDF5
:10092500F8F5F0EE8420D21CFEADF075F008EF2F3F
:10093500FFED33FD4007985006D5F0F222C398FD30
:050945000FD5F0EA22CD
:0E094A00C3E49FFFE49EFEE49DFDE49CFC22BE
:10095800EB9FF5F0EA9E42F0E99D42F0EC6480C816
:0609680064809845F022B6
:00000001FF
