:03000000020BCE22
:100BCE0078FFE4F6D8FD9000007F007E01E4F0A3EC
:0A0BDE00DFFCDEFA75815C020C23D7
:060C6800021C0000C102A5
:060085008FAC43AC8022A9
:0B10C90075AB8075AF1FD2BAD2AF220A
:10105900E4AFADEF75F010A4FFAEF0ADAEEF4DFF0C
:011069002264
:03005300020F4C4D
:100F4C00C0E0C0F0C0D075D000C005C006C007120C
:100F5C0010598E1C8F1DD202D007D006D005D0D0D0
:050F6C00D0F0D0E032DE
:100FB300AE077F071200853002FDEE25E02408F816
:080FC300A61C08A61DC20222B3
:020DC8008F5842
:100DCA00E4900012F0A3F0A3F0900012F0A3F0A3B5
:100DDA00F0900014E0FFC3940A5022120FB3E025EA
:100DEA00E02408F8E6FE08E6FF900013E02FF090F2
:100DFA000012E03EF0900014E004F080D49000125B
:0C0E0A00E0FEA3E0FF7C007D0A1208E976
:010E160022B9
:100EFB00E490000EF0A3F07F07120DC890000EEEE9
:100F0B00F0A3EFF0C394D0EE9407500CE094329022
:0A0F1B00000EE094007F00227F0129
:010F250022A9
:10106A00C2AF75F75575F7AA75F75A438F01D2AF14
:01107A002253
:10107B00C2AF75F75575F7AA75F75A538FFED2AFF6
:01108B002242
:10103400AB07AA0612106A8AE18BE28DE3E4F5E4B9
:0310440002107B1C
:100FE100AB07AA0612106A8AE18BE28DE38CEB75DE
:050FF100E40102107B89
:10109D0012106AE4F5E18FE28DE375E40302107B33
:10108C0012106AE4F5E18FE275E404AFE312107B11
:01109C002231
:080003008F828E83E493FF223B
:100C6E0001270041000C00420007000042000A006C
:100C7E00004200050000410004004100090041004F
:100C8E000D0002520000024A0000012500014E280C
:100C9E00014F3C015000012800024C0000014700AA
:100CAE000151000149000148000126AA022300005B
:100CBE001E293F0006005B004F1066006D007D0090
:100CCE0007007F006F00790038005C000000FF0015
:100CDE0041000000410001004100020041000300FC
:060CEE00012100012200BB
:060F2600C2917F647E0011
:100F2C00E4FDFCC3ED9FEC9E5015E4FBFA0BBB00FB
:0F0F3C00010AEB64644A70F50DBD00010C80E4FE
:010F4B002283
:100F7100E4F580F590F5B075D38075D2A8F5D575F7
:100F8100D4DFF5DB75DA0ED286C290C285C291D26A
:020F9100B0228C
:100F9300E4FDFCC3ED9FEC9E5015E4FBFA0BBB0094
:0F0FA300010AEB640A4A70F50DBD00010C80E4F1
:010FB200221C
:0700560025E02429F8E6FF74
:02005D008F5CB6
:10005F00E4F9E55C30E004D2868002C286C2837F79
:10006F00067E00120F2CD283120F2CE55CC313F502
:05007F005C09B908DD79
:010084002259
:100E8D00D286E4900013F0A3F0C2837F067E001299
:100E9D000F2CD283120F2C900013E0C313F0308669
:100EAD0004E04480F0900014E004F0E0C3940840A6
:060EBD00D8900013E0FFD5
:010EC300220C
:100E1700E4F9F582F583C296C2B17F14FE120F2C56
:100E2700D2967F147E00120F93E58225E0F582E5C6
:100E37008333F583309503438201C2967F147E0086
:0D0E4700120F9309B910D9D2B1AE83AF825A
:010E5400227B
:100FCB00E4FFFEF51EF51F120E17EF7802CEC313CA
:050FDB00CE13D8F9FF60
:010FE00022EE
:10104700A907D2847F067E00120F2CC284AF01024B
:02105700005D3A
:100B1400E54F75F00A84FDE54F75F00A84ABF07576
:040B24005B297F0DBD
:060B28008F588D598B5A15
:100B2E00900000E0B55813A3E0B5590EA3E0B55AF6
:100B3E0009A3E0655B7003020BCDE548B4011175A6
:100B4E00580D75590A755A01900003E0655B606F88
:100B5E007F011210477F401210477FC0121047E5E9
:100B6E0058120056E55825E0242AF8E6FF12005DDB
:100B7E00E559120056E55925E0242AF8E6FF120041
:100B8E005DE55A120056E55A25E0242AF8E6FF12D2
:100B9E00005DE4FF12005DE4FF12005DAF5B12002A
:100BAE005DE4FF12005D7F8E121047D2849000002C
:0F0BBE00E558F0A3E559F0A3E55AF0A3E55BF085
:010BCD002205
:100CF5007F42121047120E8D90000EEFF0120E8DEE
:100D050090000FEFF0120E8D900010EFF0120E8D87
:100D1500900011EFF0120E8D900012EFF0E4FF90AD
:100D2500000EE0FE5401D3940040030F8042EE54C0
:100D350008D3940040047F02803690000FE0FE54F3
:100D450001D3940040047F038026EE5408D3940019
:100D550040047F04801A900010E0FE5401D39400F3
:100D650040047F05800AEE5408D3940040027F06B4
:010D7500225B
:0710D400AD4EE4FF02109D88
:100FF600E4FF12108C8F4EE54ED3945A4006754E80
:051006003C1210D42291
:0710DB00AD4F7F0102109DE3
:10100B007F0112108C8F4FE54FD3945A4006754FCA
:05101B003C1210DB2275
:100E5500054BE54B7002054A90000AE0FEA3E0FF52
:100E6500E4FCFD7B607AEAF9F8D312094C400E9058
:100E7500000BE004F0700690000AE004F00553E56D
:080E8500537002055202004FF8
:100D7600E4FFFEFD120E17EF5404FDD39400400A63
:100D8600052190000C7419F0801BE4F521EF78031F
:100D9600CEC313CE13D8F9FF7802CEC313CE13D821
:100DA600F990000CF0E521D394054015E54864015F
:100DB600600F75480185255B7B017D0A7F0D120B4F
:010DC6002804
:010DC7002209
:10096200E4F554F555F556F557AC52AD531208B0AF
:100972007B007A80795E784312083E4003020A5671
:10098200E4F552F553120D7630001730B009C285E6
:10099200E4F549F5268010E528700CD2857549AA40
:1009A2008005C285E4F549120EFB8F55E5551460AA
:1009B20043046003020A56E528B4010AE4900007E2
:1009C200F0A3F0752855E528B45525900008E004F9
:1009D200F07006900007E004F0D3900008E0941451
:1009E200900007E094004008E4F528F0A3F0C290DC
:1009F200E4F52222E5287022E5276003B4021BD227
:100A0200907F147E00120F2C752801E4900007F0ED
:100A1200A3F0F55BFBFDFF120B28900008E004F049
:100A22007006900007E004F0120F28E4F522D3903C
:100A32000008E094EA900007E094004017C290E4B6
:100A4200F528F0A3F085255B7B027D0A7F0D120B52
:040A520028752709D3
:010A5600227D
:0110E60022E7
:0110E70022E6
:050A57007527027F027B
:020A5C008F55B4
:100A5E00E4F556200124E555B401057556028003D0
:100A6E0075561690000CE0C394235002802290001D
:100A7E000CE0FFC3946450528029E555B40105750E
:100A8E005602800375561A90000CE0C39423500949
:100A9E0085565B7B0C7D0B802D90000CE0FFC39484
:100AAE00645027EFFB7A007C007D0A7E001208E975
:100ABE00AD07C0057C007D0AAF037E001208E9ABCE
:100ACE000585565BD0057F0D803890000CE0FBFF4E
:100ADE007E007C007D641208E9AA07EB249CFFE4EB
:100AEE0034FFFE7C007D0A1208E9AD07C005E0FF69
:100AFE007E007C007D0A1208E9AB0585565BAF02CD
:050B0E00D005120B28C8
:010B130022BF
:10008E00E4F554E527B40A00400302083A9000A2B2
:10009E00F82828730200C0020106020143020389F8
:1000AE000204A80205CB0206550206A202076C0244
:1000BE000831E528600302083DD3E54B9437E54A45
:1000CE009405500302083DE4F54AF54B90000CE010
:1000DE0094235009755B167B0C7D0B8012E54E75D3
:1000EE00F00A84FDE54E75F00A84ABF0755B167F61
:1000FE000D120B2875270122120CF5EF6003020872
:10010E003DD200F54CF54DC20190000CE0C3942396
:10011E005009755B167B0C7D0B8012E54E75F00A4F
:10012E0084FDE54E75F00A84ABF0755B167F0D12FB
:10013E000B280205BDE528600302083D120CF58F61
:10014E0054E5546405702B120D7690000CE0F550BA
:10015E007547AA2001057527038003752704E4F56A
:10016E004CF54D90000AF0A3F0F523F524D2910240
:10017E000785E554B40221E547701DD2917F64FED8
:10018E00120F2C7547BBE4F54CF54DF54AF54B7F38
:10019E0001120A5C75270522E5546403705630017E
:1001AE0002C201E54E75F00A84FDE54E75F00A8433
:1001BE00ABF0755B167F0D120B28E4F54AF54B0577
:1001CE004DE54D7002054CD39414E54C940050034C
:1001DE0002083D752707E4F54CF54DF54AF54BE55C
:1001EE004E75F00A84FDE54E75F00A84ABF0755B32
:1001FE0025020767E55464047054200102D201E51C
:10020E004F75F00A84FDE54F75F00A84ABF0755B0F
:10021E001A7F0D120B28054DE54D7002054CE4F5C5
:10022E004AF54BD3E54D9414E54C94005003020867
:10023E003D752708E4F54CF54DE54F75F00A84FD44
:10024E00E54F75F00A84ABF0755B29020767AC4A7F
:10025E00AD4BE41208B0E4FBFA79B2784312083ED3
:10026E00400302083DE4F54CF54DF547F54AF54BD4
:10027E00200167E52554109400400FE549B4AA0A01
:10028E00E526B4AA05752506800375251690000C83
:10029E00E0C39422500A85255B7B0C7D0B02076719
:1002AE0090000CE0FFD39423500302083DEF9464BA
:1002BE005026EFFB7A007C007D0A7E001208E9AD25
:1002CE0007C0057C007D0AAF037E001208E9AB056E
:1002DE0085255BD0050207678066E5255410D3940B
:1002EE0000400FE549B4AA0AE526B4AA0575250A09
:1002FE00800375251A90000CE0C39422500A755B9A
:10030E001A7B0C7D0B02076790000CE0FFD3942341
:10031E00500302083DEF94645026EFFB7A007C00F8
:10032E007D0A7E001208E9AD07C0057C007D0AAF8C
:10033E00037E001208E9AB0585255BD00502076731
:10034E0090000CE0FBFF7E007C007D641208E9AAA1
:10035E0007EB249CFFE434FFFE7C007D0A1208E9C3
:10036E00AD07C005E0FF7E007C007D0A1208E9ABF8
:10037E000585255BAF02D00502082EAC4AAD4BE4D5
:10038E001208B07B007A80795E784312083E4003F3
:10039E0002042CE4F54AF54B0524E52470020523EE
:1003AE0090000CE0C394235009755B147B0C7D0BFD
:1003BE00802D90000CE0FFC394645027EFFB7A0071
:1003CE007C007D0A7E001208E9AD07C0057C007D29
:1003DE000AAF037E001208E9AB05755B14D0057FEA
:1003EE000D803890000CE0FBFF7E007C007D6412D7
:1003FE0008E9AA07EB249CFFE434FFFE7C007D0A8B
:10040E001208E9AD07C005E0FF7E007C007D0A12F0
:10041E0008E9AB05755B14AF02D005120B289000EE
:10042E000CE0F550C3954E4022054DE54D7002058A
:10043E004CD39406E54C9400402CD390000BE094E2
:10044E00B190000AE09408401D8010E4F54CF54D83
:10045E00D3E5249468E5239401400B120F26E4F5AE
:10046E004CF54D752702120CF58F51E551B4050769
:10047E00E5477003020632E547B40114E5517010EA
:10048E00C2917F64FE120F2CE4F54CF54D0205BDB2
:10049E00E551600302083DF54722AC4AAD4BE4122C
:1004AE0008B07B007A80795E784312083E400302E2
:1004BE00054BE4F54AF54B0524E52470020523901F
:1004CE00000CE0C394235009755B187B0C7D0B80E8
:1004DE002D90000CE0FFC394645027EFFB7A007C54
:1004EE00007D0A7E001208E9AD07C0057C007D0A7A
:1004FE00AF037E001208E9AB05755B18D0057F0DC2
:10050E00803890000CE0FBFF7E007C007D641208BA
:10051E00E9AA07EB249CFFE434FFFE7C007D0A125F
:10052E0008E9AD07C005E0FF7E007C007D0A1208D9
:10053E00E9AB05755B18AF02D005120B2890000CC5
:10054E00E0F550C3954F4025054DE54D7002054C25
:10055E00D39406E54C9400402FD390000BE094B159
:10056E0090000AE094084020120F268018E4F54C03
:10057E00F54DD3E5249468E5239401400B120F2624
:10058E00E4F54CF54D752702120CF58F51E551B47B
:10059E000507E5477003020632E547B40115E5513C
:1005AE007011C2917F64FE120F2CE4F54CF54D755F
:1005BE00270222E551600302083DF54722120CF591
:1005CE008F51E5516402703C054DE54D7002054CAE
:1005DE00D39414E54C9400403CE4F54CF54D75472E
:1005EE00BBC20090000AF0A3F0D29075270620013E
:1005FE0005755B168003755B1A7B037D037F031203
:10060E000B288011D3E54B9437E54A94054006122A
:10061E000A57120F26E55164056005E551B402082C
:10062E00E547700475470122E547B40110E55170A6
:10063E000C120A57C2917F647E000207A6E5516034
:10064E000302083DF54722120CF5EF64027020E517
:10065E0047701CD3E54B947AE54A94034011120A75
:10066E0057C291C290120F28D2007547BB800C1250
:10067E000CF5EF7006F547F54AF54BD390000BE0FD
:10068E00946290000AE09411500302083DC290E477
:10069E00F0A3F022120CF5EF6406700BE54EC39436
:1006AE005A5015054E8011120CF5EF64017029E5B4
:1006BE004ED394284002154EE54E75F00A84FDE5A2
:1006CE004E75F00A84ABF0755B257F0D120B281268
:1006DE000F28E4F54CF54D22120CF5EF640370363D
:1006EE00054DE54D7002054CD39414E54C94005025
:1006FE000302083D1210D4752702D200E4F54CF522
:10070E004DE54E75F00A84FDE54E75F00A84ABF0AA
:10071E00755B160207E1AC4AAD4BE41208B0E4FB80
:10072E00FA79B2784312083E400302083DE4F54AD6
:10073E00F54B900009E0B421057425F08006900079
:10074E00097421F0E54E75F00A84FDE54E75F00A48
:10075E0084ABF0900009E0F55B7F0D02082E120CC1
:10076E00F5EF64067016E54FC3945A5002054F120A
:10077E000B14E4F54CF54D7F64FE801C120CF5EF66
:10078E0064017017E54FD394284002154F120B14D5
:10079E00E4F54CF54D7F64FE020F2C120CF5EF6460
:1007AE0004703B054DE54D7002054CD39414E54C99
:1007BE009400407B1210DB752702D200E4F54CF555
:1007CE004DE54F75F00A84FDE54F75F00A84ABF0E8
:1007DE00755B1A7F0D120B28E4F54AF54B22AC4AD5
:1007EE00AD4BE41208B0E4FBFA79B2784312083E3E
:1007FE00503DE4F54AF54B900009E0B4210574290B
:10080E00F080069000097421F0E54F75F00A84FD22
:10081E00E54F75F00A84ABF0900009E0F55B7F0DB3
:0F082E00020B28C200C291C285C29022E4F527B6
:01083D002298
:100EC40075E620120F711210AD1210201210C9D243
:100ED400AFD295120FF612100B755BFF7B0E7D0ED1
:100EE4007F0E120B2812096212008E12004F7F141B
:070EF4007E00120F2C80EEBE
:0F10AD0043A802E4F589758CA2758A08D28C22BB
:03000B0002000EE2
:10000E00C0E0C0F0C083C082C0D075D000C000C0B8
:10001E0001C002C003C004C005C006C007758CA293
:10002E00758A08120E55D007D006D005D004D0031D
:10003E00D002D001D000D0D0D082D083D0F0D0E08A
:01004E00327F
:10102000C2AF75F75575F7AA75F75A75B627E4F587
:041030009AD2AF227F
:04004F0075B755220A
:0D10BC0075F75575F7AA75F75AE4F5B622D9
:03008B000210E27E
:0410E20075800032E3
:10083E0074F8CC6480CCC86480C8F582046043C36D
:10084E00EB9FF5F0EA9E42F0E99D42F0E89C45F000
:10085E0060305018E5825FFFE582F42B5582FB5025
:10086E00210ABA001D09B90019088016E5825BFB42
:10087E00E582F42F5582FF50090EBE00050DBD0016
:10088E00010CC3EB9FF5F0EA9E42F0E99D42F0E8C1
:0D089E009C45F06007CC4820E701B3EC2238
:1008AB0075F020800E75F010800575F0087D007EC8
:1008BB00007F003392D530D50312093EEC33401044
:1008CB00EF33FFEE33FEED33FDEC33FCD5F0ED22D1
:0E08DB00E5F0247EA2D513CC92E7CDCEFF220D
:100BE800020EC4E493A3F8E493A34003F68001F251
:100BF80008DFF48029E493A3F85407240CC8C3330E
:100C0800C4540F4420C8834004F456800146F6DFDC
:100C1800E4800B0102040810204080900C68E47EF8
:100C2800019360BCA3FF543F30E509541FFEE493D1
:100C3800A360010ECF54C025E060A840B8E493A398
:100C4800FAE493A3F8E493A3C8C582C8CAC583CAC3
:100C5800F0A3C8C582C8CAC583CADFE9DEE780BE7B
:010CF40000FF
:1008E900BC000BBE0029EF8DF084FFADF022E4CCF3
:1008F900F875F008EF2FFFEE33FEEC33FCEE9DECBC
:10090900984005FCEE9DFE0FD5F0E9E4CEFD22ED01
:10091900F8F5F0EE8420D21CFEADF075F008EF2F4B
:10092900FFED33FD4007985006D5F0F222C398FD3C
:050939000FD5F0EA22D9
:0E093E00C3E49FFFE49EFEE49DFDE49CFC22CA
:10094C00EB9FF5F0EA9E42F0E99D42F0EC6480C822
:06095C0064809845F022C2
:00000001FF
