:03000000020F08E4
:0C0F0800787FE4F6D8FD75813E020F4FA3
:10070100420019000042000D000041000A004100B2
:1007110008004100020041000600410007004100BD
:100721003A0041001F004100200042001D0000412D
:1007310000417C4100125D420013000042003D0077
:100741000042003B0000420015000042003500005D
:100751004200000000420004000042001B00004271
:100761000017000041000F00410037004100330035
:10077100410039004100380041003F0041000300C1
:1007810041004400410042004100430041000B0090
:100791004100090041004000420010000041000CEE
:1007A100004100340002390000023C0000013E001B
:1007B100013800013701C101013600013B0001216F
:1007C100000122000123000124000125000126006F
:1007D100012700012900012C00012D00012E00013B
:1007E1002F000130000131005200213F065B4F66AE
:1007F1006D7D077F6F73793940007138FF013200D9
:090801000133000134000135004F
:0A185A0090001FE0FD7F010218005E
:10174F007F011217EF90001FEFF0C394324006E0B5
:0F175F00D3945A400990001F743CF012185A227C
:0A186400900020E0FD7F0202180052
:10176E007F021217EF900020EFF0C394324006E094
:0F177E00D3945A40099000207446F01218642248
:0B182E0090001DA3E0FD7F03021800E6
:1015C2007F031217EF7E0090001DEEF0A3EFF0D321
:1015D2009464EE9400500CC3E0945890001DE09483
:1015E20000500C90001DE4F0A3745DF012182E223E
:10172F00E4FDFCC3ED9FEC9E5015E4FBFA0BBB00F0
:0F173F00010AEB64644A70F50DBD00010C80E4F3
:01174E002278
:02081B008F0A42
:10081D00E4900087F0A3F0A3F0F50BF50C12178D03
:10082D00EFC39408501A050CE50C7002050B7F0AF6
:10083D007E0012172FD3E50C94C8E50B940040DD14
:10084D0012178DEFC39408500302092D121621EFD4
:10085D00641B600302092D121621EF642A60030246
:10086D00092D121621EF6401600302092D121621C4
:10087D00900087EFF0121621900088EFF0121621EC
:10088D00900089EFF012162190008AEFF0121621D8
:10089D0090008BEFF0FD90008AE0FE7C00E42DFFD0
:1008AD00EC3EFE900087E0F92446FDEC33FCA3E01E
:1008BD007A002DFDEA3CFCA3E02DFDEA3CFCED6F3A
:1008CD007002EC6E705AE9650A7055E924FD6031CD
:1008DD0024FC603724FE601724E96039241F703D25
:1008ED00900088E0FF90000DE4F0A3EFF0802E90D3
:1008FD000088E02403FEE433900019F0A3CEF080CD
:10090D001C900088E0900008F08012900088E09024
:10091D00000AF08008900088E0900007F07FAA227E
:02092D007F0049
:01092F0022A5
:05110200E4FBFD7F018C
:061107008F0A8D0B8B0C1A
:10110D00E4F50DF50E1218397F1B1200037F2A121C
:10111D0000037F02120003AF0A120003AF0B12008F
:10112D0003AF0C120003E50A2447FFE433FE7C00F5
:10113D00EF250BFFEC3EFEEF250CF50EEC3EF50D0D
:0B114D00FF120003AF0EE50E020003CE
:0415F200E4F0A3F08E
:1015F6001211027F0112081BBFAA037F0122E4F524
:10160600081211027F0112081BBFAA037F012205DF
:0A16160008E508C3940340E97F00D3
:0116200022A7
:10152300E4FBFD7F071211077F0712081BBFAA0305
:101533007F0122E4F508E4FBFD7F071211077F0713
:1015430012081BBFAA037F01220508E508C3940301
:0415530040E47F00F1
:011557002271
:0712AD0090003DE4F0A3F006
:1012B400E4FBFD7F091211077F0912081BBFAA0373
:1012C4007F0122E4F508E4FBFD7F091211077F0981
:1012D40012081BBFAA037F01220508E508C3940571
:0412E40040E47F0063
:0112E80022E3
:10155800E4FBFD7F031211077F0312081BBFAA03D8
:101568007F0122E4F508E4FBFD7F031211077F03E6
:1015780012081BBFAA037F01220508E508C39403CC
:0415880040E47F00BC
:01158C00223C
:02135E008F08F6
:10136000E4FBAD087F111211077F1112081BBFAA01
:10137000037F0122E4F509E4FBAD087F1112110798
:101380007F1112081BBFAA037F01220509E509C3CB
:06139000940540E37F001C
:011396002234
:021397008F08BD
:10139900E4FBAD087F131211077F1312081BBFAAC4
:1013A900037F0122E4F509E4FBAD087F131211075D
:1013B9007F1312081BBFAA037F01220509E509C390
:0613C900940540E37F00E3
:0113CF0022FB
:0213D0008F0884
:1013D200E4FBAD087F171211077F1712081BBFAA83
:1013E200037F0122E4F509E4FBAD087F1712110720
:1013F2007F1712081BBFAA037F01220509E509C353
:06140200940540E37F00A9
:0114080022C1
:021409008F084A
:10140B00E4FBAD087F181211077F1812081BBFAA47
:10141B00037F0122E4F509E4FBAD087F18121107E5
:10142B007F1812081BBFAA037F01220509E509C318
:06143B00940540E37F0070
:011441002288
:021442008F0811
:10144400E4FBAD087F101211077F1012081BBFAA1E
:10145400037F0122E4F509E4FBAD087F10121107B4
:101464007F1012081BBFAA037F01220509E509C3E7
:06147400940540E37F0037
:01147A00224F
:02147B008F08D8
:10147D00E4FBAD087F191211077F1912081BBFAAD3
:10148D00037F0122E4F509E4FBAD087F1912110772
:10149D007F1912081BBFAA037F01220509E509C3A5
:0614AD00940540E37F00FE
:0114B3002216
:0214B4008F089F
:1014B600E4FBAD087F121211077F1212081BBFAAA8
:1014C600037F0122E4F509E4FBAD087F1212110740
:1014D6007F1212081BBFAA037F01220509E509C373
:0614E600940540E37F00C5
:0114EC0022DD
:10158D00E4FBFD7F201211077F2012081BBFAA0369
:10159D007F0122E4F508E4FBFD7F201211077F2077
:1015AD0012081BBFAA037F01220508E508C3940595
:0415BD0040E47F0087
:0115C1002207
:1011EA00E4F580F590F5A0F5B0F5D375D2FFF5D505
:1011FA0075D4DCF5D775D62075DB0375DA38C2905D
:10120A00C280C281C282C283C284C285C286C287A8
:10121A00C2B3C2B4C2B5C297C296C293C292D294A2
:03122A00D2952238
:080DE00090001DA3E0FFE4FDFB
:100DE800ED7046EFC39464401CEF75F06484900086
:100DF80033F0EF75F06484AEF0EE75F00A8490007D
:100E080039F0EE8019EFC3940A900033740E40084D
:100E1800F0EF75F00A848001F0900039F0EF75F07A
:100E28000A84900038E5F0F022BD010F9000337479
:100E38000EF09000397410F0E48030BD020BE4909D
:100E48000033F0900039F08022BD03129000337413
:100E58000EF0900039740BF090000FE0800DBD0487
:100E68000E900033740EF0900039F0900038F022A4
:100E7800ED7046EFC39464401CEF75F064849000F5
:100E88003FF0EF75F06484AEF0EE75F00A849000E0
:100E980003F0EE8019EFC3940A90003F740E4008E7
:100EA800F0EF75F00A848001F0900003F0EF75F020
:100EB8000A84900044E5F0F022BD010F90003F74D1
:100EC8000EF09000037410F0E48030BD020BE49043
:100ED800003FF0900003F08022BD031290003F74A1
:100EE8000EF0900003740BF0900037E0800DBD0405
:100EF8000E90003F740EF0900003F0900044F02232
:0F181000E4FF121442E4FF121397E4FF0213D017
:10000E00C200E4FF121409E4900006F0FF12135E22
:05001E00E4FF0214B430
:100BDF00120C94900040EFF024FE600D24FC601086
:100BEF002405705F7523038003752304752201228A
:100BFF00E5217003020C93E53664106003020C9339
:100C0F00053AE53A70020539D39464E5399400400A
:100C1F0073752401752201E4F521F539F53A900039
:100C2F0012E0FFFDD390000EE09D90000DE09400C8
:100C3F004002800690000DA3E0FFE4FD120DE8E4F2
:100C4F00F53722E5226035E4F52290000CE0600ACA
:100C5F00E536641060047F0180027F008F23EF6010
:100C6F000DE4FF121442E4FF121397753602E524C8
:100C7F00B40109E4F524753701753602752101E4D5
:040C8F00F539F53A04
:010C9300223E
:10115800120C94900040EFF024FC600804700C75A9
:101168002701800375270275250122E52564017092
:10117800280526F525900034E0B5271DE526C394FB
:10118800024005E4F526800EE53BC39404500AE4CA
:09119800F526FF1214B4753B01A9
:0111A100222B
:100D4600120C94900040EFF024FE601124FC601712
:100D5600240570459000427401F0F5282290004267
:100D66007402F075290122053AE53A7002053990B8
:100D760000427403F0D3E53A9464E539940040598F
:100D8600E53B94044007E53BD39405404CE4F53934
:100D9600F53A120DE075361022E5286014E490004D
:100DA60013F0A3F0F52890000C7403F090000B806C
:100DB60016E5296019E4F529900013F0A3F09000D8
:100DC6000C7404F090000974AAF075360922E4F553
:090DD60039F53A9000427403F073
:010DDF0022F1
:10093000120C94900040EFF024FC604E14700302FF
:1009400009CB240260030209D5752A019000437483
:1009500001F0053DE53D7002053CD39464E53C940F
:10096000005003020A38E53694104003020A38901A
:1009700000347401F0E4F52AF53CF53D90001FE0E9
:10098000FFE4FD120E78753B0422752B01900043A5
:100990007402F0053DE53D7002053CD39464E53CEE
:1009A00094005003020A38E53694104003020A38D6
:1009B0009000347402F0E4F52BF53CF53D900020F6
:1009C000E0FFE4FD120E78753B0522752C019000C6
:1009D000437404F022E4F53CF53DE52A601AE4F5A1
:1009E0002A90003DF0A3F090001FE090003AF090B4
:1009F00000347401F0FF801DE52B6020E4F52B909E
:100A0000003DF0A3F0900020E090003AF090003418
:100A10007402F07F011214B4753B0222E52C6012BF
:100A2000E4F52C90003DF0A3F07F011214B4753B67
:080A300003229000437407F05B
:010A3800229B
:100B1A008D09EF24FE603714606624026003020B1D
:100B2A00DE90001FE0FFC3945A500AE509B401059C
:100B3A00E004F08011EFD39432400BE509B40206C9
:100B4A0090001FE014F012185A90001F802B90009A
:100B5A0020E0FFC3945A500AE509B40105E004F005
:100B6A008011EFD39432400BE509B40206900020BD
:100B7A00E014F0121864900020E0FFE4FD020E7801
:100B8A0090001DE0FEA3E0FFC39464EE94005015AC
:100B9A00E509B40110E004F0700690001DE004F0CD
:100BAA0090001D801CD3EF9458EE94004020E50974
:100BBA00B4021B90001EE024FFF090001DE034FFF9
:100BCA00F0A3E0900012F0900041E0241FF0121808
:050BDA002E120DE022C7
:0211A2008F08B4
:1011A400D2B020B01AE52FB4AA15052DE52DD3949D
:1011B40004400FE4F52DF52F7D01120B1A80037501
:1011C4002FAAD2B120B11BE530B4AA16052EE52E04
:1011D400D3940440107D02AF08120B1AE4F52EF5E7
:0511E40030227530AA65
:0111E90022E3
:1012E900EF600790001FE0FC8005900020E0FCD330
:1012F90090003EE094DE90003DE09400401CE4F054
:10130900A3F0E538700AAF04FD120E787538012292
:0A1319007D04E4FF120E78E4F538BD
:0113230022A7
:10002600EF6028D3900014E094DE900013E0940073
:100036004019E4F0A3F0E53E7007120DE0753E01AD
:0C004600227D04E4FF120DE8E4F53E22E8
:10167500E53664046020E53B6407601A900040E0AD
:101685001424FA5002800CE531700B7531017F018D
:0616950002147BE4F531B4
:01169B00222C
:10005600E53612059D00800000BD0100E60202F5AE
:1000660003032F0401A10801C50901E30A022A0BB3
:1000760002940C02E8100000033E1215F612169CBC
:100086009000427403F0900012E0FFFDD390000E42
:10009600E09D90000DE094004002800690000DA3C4
:1000A600E0FFE4FD120DE87F01121442753601E40B
:1000B600900013F0A3F022D3900014E09437900040
:1000C60013E09405500302033E900002E0B40105DC
:1000D600E4FF121442E4900013F0A3F075360222F6
:1000E600900015E0FCA3E0FDE41205017B007A8098
:1000F600795E784312048350069000151215F2902B
:100106000041E0FF90000DE0FCA3E0FDC39FEC94EE
:10011600005079C3ED9455EC9400500520010280FF
:1001260020D390000EE0945590000DE094004039E5
:10013600900014E09437900013E0940550092001D4
:1001460006D2017F018016C3900014E094B190009E
:1001560013E09408500C300109C201E4FF1213D0D9
:100166008007E4900013F0A3F0900012E0FFFDD3A7
:1001760090000EE09D90000DE094004002800690F5
:10018600000DA3E0FFE4FD120DE88030E4900013BB
:10019600F0A3F0FF1213D075360822900012E0FF8C
:1001A600FDD390000EE09D90000DE094004002808B
:1001B6000690000DA3E0FFE4FD120DE8020D467F58
:1001C600011214427F01121397E490001BF0A3F072
:1001D600900013F0A3F0120BDF75360A22D39000BD
:1001E60014E094BD900013E094014014E4FF12144F
:1001F60042E4FF12139775360BE4900013F0A3F058
:10020600900012E0FFFDD390000EE09D90000DE0FF
:1002160094004002800690000DA3E0FFE4FD120D5D
:10022600E80202F2D3900014E094BD900013E0942B
:100236000140387F011214427F0112139775360C64
:1002460090000BE0B4AA0C9000177426F0A3743E3D
:10025600F08011900009E0B4AA0A9000177440F0EB
:10026600A37451F0E4900013F0A3F0900012E0FFA5
:10027600FDD390000EE09D90000DE09400400280BA
:100286000690000DA3E0FFE4FD120DE8805E9000ED
:1002960017E0FEA3E0FFD3900014E09F900013E068
:1002A6009E401CE4FF121442E4FF121397E49000F0
:1002B6000BF0900009F0900013F0A3F0753608904B
:1002C6000012E0FFFDD390000EE09D90000DE0943B
:1002D600004002800690000DA3E0FFE4FD120DE849
:1002E600800AAF371200267F031211A2020BDF121B
:1002F60018107D03E4FF120DE890000FE064017012
:1003060037900013E0FCA3E0FDE41205017B007AC0
:1003160080795E784312048350069000131215F21A
:1003260012169CEF7012F536221218107D04E4FFA7
:09033600120DE8E4900042F022EF
:10033F00E53BB408004003020482900350F82828DC
:10034F00730203680203790203A40203FA0204236F
:10035F0002042F02043C0204739000437407F0E47C
:10036F0090003DF0A3F0753B0122900002E0B40134
:10037F001A900019E0FAA3E0FBC39423EA9400500B
:10038F00047D018008AF03E4FD80047D02E4FF12C9
:10039F000E7802093090003DE0FCA3E0FDE4120569
:1003AF00017B007A80795E78431204835003121226
:1003BF00AD900019E0FAA3E0FBC39423EA94005038
:1003CF00067D01E4FF8004AF03E4FD120E78900078
:1003DF003AE0FFC390001AE09F900019E0940040AC
:1003EF0049E4FF1214B4753B01803F90003DE0FCDF
:1003FF00A3E0FDE41205017B007AE0792678441230
:10040F000483500EE490003DF0A3F0FF1214B47576
:10041F003B0180167F011212E97F011211A2800A9F
:10042F00E4FF1212E97F021211A20211587D03E4B8
:10043F00FF120E7812000E900037E06402703490B5
:10044F00003DE0FCA3E0FDE41205017B007A80791A
:10045F005E784312048350031212AD12164DEF70E3
:10046F0012F53B2212000E7D04E4FF120E78E49089
:04047F000043F02224
:0D0F9400E02421F582E43400F583E0FEFF47
:100FA100EF5401D394004004D2808002C280EF54F8
:100FB10002D394004004D2818002C281EF5404D351
:100FC10094004004D2828002C282EF5408D394007C
:100FD1004004D2838002C283EF5410D394004004B2
:100FE100D2848002C284EF5420D394004004D2857D
:100FF1008002C285EF5440D394004004D28680021F
:10100100C286EF5480D394004003D28722C2872244
:1005C300900014E004F07006900013E004F0900033
:1005D3003EE004F0700690003DE004F090003CE043
:1005E30004F0700690003BE004F0900036E004F065
:1005F3007006900035E004F0900001E004F070060E
:10060300900000E004F0900005E004F07006900014
:1006130004E004F0900016E004F07006900015E08A
:1006230004F090001CE004F0700690001BE004F05E
:10063300C2B3C2B4C2B5C297C296C293C2920532C4
:10064300E53214B4070040030206FD90065C75F022
:1006530003A4C58325F0C5837302067102067A02DB
:10066300068302068C02069502069E0206B39000DC
:1006730033120F94D2B522900039120F94D2B422C0
:10068300900038120F94D2B32290003F120F94D2ED
:100693009722900003120F94D29622900044E024F4
:1006A30021F582E43400F583E0FF120FA1D29322F7
:1006B300C280C281C282C283C284900042E0FF54DE
:1006C30001D394004002D284EF5402D39400400239
:1006D300D283900043E0FF5401D394004002D282BE
:1006E300EF5402D394004002D281900043E05404BB
:0D06F300D394004002D280D29222E4F5326E
:0107000022D6
:10170D00900035E0FCA3E0FDE41205017B007A803A
:10171D00795E784312048350069000351212B002A0
:02172D00164D57
:10164D00900019E0FEA3E0FFC39401EE9400400961
:10165D00D3EF94C8EE9400400C9000377402F075EF
:08166D003B067F01227F0022F1
:10169C0090000DE0FEA3E0FFC39401EE940040091E
:1016AC00D3EF94C8EE9400400B90000F7401F075CA
:0716BC003603FF227F00222C
:1016C3009000337411F0900039F0900038F09000DE
:1016D3003FF0900003F0900044F09000427403F058
:0516E300A37407F022D2
:1014ED0012158DEF6401702D900007E0F9B4AA1C60
:1014FD00E536B40417E4900013F0A3F01216C37F81
:10150D00887E1312172FE4F536F53B22E970067528
:06151D003B0775360422B5
:10101100900000E0FCA3E0FDE41205017B007A8072
:10102100795E7843120483500DE4900000F0A3F040
:101031001215F612169CE536C394105010E536943D
:1010410008400A20010280213001418038E53664E0
:10105100087039200119900041E0FFC390000EE0B3
:101061009F90000DE094005006D2017F01801A305C
:10107100011A900041E0FFC390000EE09F90000D27
:0D108100E094004007C201E4FF1213D022EA
:100A3900900004E0FCA3E0FDE41205017B007A804C
:100A4900795E78431204834003020B19E490000491
:100A5900F0A3F0E53BC394064003020B19121523DA
:100A690090000AE07014900006E0700E900002E019
:100A7900B401079000067401800F90000AE0B4AA3F
:100A89000D900006E0B40106E4F0FF1214091215F6
:100A990058E536D3940C4009E53694085003E480B0
:100AA90020900008E06036147066900002E070152E
:100AB9000534E534D394004057E4F53504F0E4F502
:100AC90034FF02135EE536D3940C500CE53664020C
:100AD9006006E53664087038E4FF021442E53570B3
:100AE90013F533753501900002F07F011214427F2E
:100AF9000112135E0533E533D394EA4013E4FF1280
:100B0900135EE4F535F5339000377403F0753B0651
:010B190022B9
:10126E001211EA1217A712184412181FD2AF121732
:10127E004F12176E1215C27D04E4FF120DE8120E06
:10128E00781214ED12005612033F121675120A3917
:0F129E0012101112170D7F0A7E0012172F80E217
:011FC000021E
:011FC10020FF
:011FC200001E
:011FC4000C10
:011FC500001B
:011FC7000118
:011FC8001404
:011FC9001502
:011FCA000214
:011FCB000015
:011FCC000014
:011FCD000013
:011FCF000110
:101FD0000A0A0A0A0A0A0A0A0A0A0A0A0A0A0A0A61
:101FE0001B1B1B1B1B1B1B0003001B1B1B1B1B1B8F
:101FF000CDCDF0F0CDCDCDCDCDCDC3C3C3CDCDCDE9
:0A080A004100450041008600C102D4
:1017A70075BA0375AACC43918043878043A8907587
:0517B7009850C29922C8
:03002300021324A1
:10132400C0E0C083C082C0D0309822C298900086AA
:10133400E02446F582E43400F583E599F0900086D4
:10134400E004F0E0C394404008E4F08004C202C228
:0A13540099D0D0D082D083D0E032CF
:08000300D2028F992002FD22B8
:10178D00900045E0FE900086E0FDC39E4005ED9E75
:09179D00FF8006C374409E2DFF7D
:0117A6002220
:0B183900E4900086F0900045F0FF22D4
:10162100900086E0FE900045E0FD6E601C74462D42
:10163100F582E43400F583E0FF900045E004F0E03A
:0B164100C394404006E4F08002E4FF88
:01164C00227B
:06081400020F0000C10309
:06186E008FAC43AC8022A8
:0B18440075AB1075AF1FD2BAD2AF22F7
:1017BC00E4AFADEF75F010A4FFAEF0ADAEEF4DFFA2
:0117CC0022FA
:030053000216E8AA
:1016E800C0E0C0F0C0D075D000C005C006C0071269
:1016F80017BC8E0F8F10D203D007D006D005D0D0DC
:05170800D0F0D0E0323A
:0B184F007F0412186E3003FDC203225C
:10108E00E4900089F0A3F0A3F0A3F0A3F090008AFF
:10109E00F0A3F0900089F012184FD3E51094DCE520
:1010AE000F94004026E510941EE50F940F501C90EF
:1010BE00008DE02510F090008CE0350FF090008B45
:1010CE00E004F0700690008AE004F0900089E004DD
:1010DE00F0E0C3940A40C090008AE0FCA3E0FDD388
:1010EE009406EC94004009A3E0FEA3E0FF02053A4B
:0310FE00E4FEFF0E
:0111010022CB
:100C9400E4900087F0A3F012108E900087EEF0A38A
:100CA400EFF0D394A2EE9401400EE094CE9000872E
:100CB400E0940250037F0122900087E0FEA3E0FF4E
:100CC400D3941EEE9404400BEF944AEE9405500323
:100CD4007F0222900087E0FEA3E0FFD3949AEE9473
:100CE4000A400BEF94C6EE940B50037F052290004C
:100CF40087E0FEA3E0FFD394AFEE9406400BEF949D
:100D0400DBEE940750037F0322900087E0FEA3E00C
:100D1400FFD3948EEE9408400BEF94BAEE940950EE
:100D2400037F0422900087E0FEA3E0FFD39446EE05
:100D34009405400BEF9472EE940650037F06227FD5
:010D440000AE
:010D4500228B
:0F181F0043A802E4F589758CA2758A08D28C2241
:03000B0002122DB1
:10122D00C0E0C0F0C083C082C0D075D000C000C087
:10123D0001C002C003C004C005C006C007758CA262
:10124D00758A081205C3D007D006D005D004D00387
:10125D00D002D001D000D0D0D082D083D0F0D0E059
:01126D00324E
:1017CD00C2AF75F75575F7AA75F75A438F01D2AFAA
:0117DD0022E9
:1017DE00C2AF75F75575F7AA75F75A538FFED2AF8C
:0117EE0022D8
:101800001217CDE4F5E18FE28DE375E4030217DEF4
:1017EF001217CDE4F5E18FE275E404AFE31217DED3
:0117FF0022C7
:1004830074F8CC6480CCC86480C8F58204604FC320
:10049300EB9FF5F0EA9E42F0E99D42F0E89C45F0BF
:1004A300603C501DE5825FFFE582D313CB5BCBF449
:1004B3002B5582FB50280ABA002409B90020088072
:1004C3001DE5825BFBE582D313CF5FCFF4C3132F0C
:1004D3005582FF50090EBE00050DBD00010CC3EB94
:1004E3009FF5F0EA9E42F0E99D42F0E89C45F060FA
:0904F30007CC4820E701B3EC221C
:1004FC0075F020800E75F010800575F0087D007E7B
:10050C00007F003392D530D50312058FEC334010A9
:10051C00EF33FFEE33FEED33FDEC33FCD5F0ED2283
:0E052C00E5F0247EA2D513CC92E7CDCEFF22BF
:100F140002126EE493A3F8E493A34003F68001F273
:100F240008DFF48029E493A3F85407240CC8C333DE
:100F3400C4540F4420C8834004F456800146F6DFAD
:100F4400E4800B0102040810204080900701E47E35
:100F5400019360BCA3FF543F30E509541FFEE493A2
:100F6400A360010ECF54C025E060A840B8E493A369
:100F7400FAE493A3F8E493A3C8C582C8CAC583CA94
:100F8400F0A3C8C582C8CAC583CADFE9DEE780BE4C
:01081A0000DD
:10053A00BC000BBE0029EF8DF084FFADF022E4CCA5
:10054A00F875F008EF2FFFEE33FEEC33FCEE9DEC6E
:10055A00984005FCEE9DFE0FD5F0E9E4CEFD22EDB4
:10056A00F8F5F0EE8420D21CFEADF075F008EF2FFE
:10057A00FFED33FD4007985006D5F0F222C398FDEF
:05058A000FD5F0EA228C
:0E058F00C3E49FFFE49EFEE49DFDE49CFC227D
:10059D00D083D082F8E4937012740193700DA3A3ED
:1005AD0093F8740193F5828883E473740293686001
:0605BD00EFA3A3A380DF01
:00000001FF
