:030000000205E80E
:1005E80078FFE4F6D8FD9000007F007E02E4F0A3D7
:0A05F800DFFCDEFA75815E02063DAD
:10078A004100530041004E0044004F000000004267
:10079A000054000042005800004100560041005A2F
:1007AA000041004B004100570041004D0041004C00
:1007BA0000012A000129000133000134000121004F
:1007CA000122000123000124000125000126000165
:0507DA002700012800CA
:040A10008E358F365A
:100A1400753700753800C3E5389536E53795355098
:100A240025753900753A00C3E53A9464E5399400B4
:100A3400500A053AE53A7002053980EB0538E53885
:060A44007002053780D0AE
:010A4A002289
:040A4B008E3B8F3C13
:100A4F00753D00753E00C3E53E953CE53D953B5039
:100A5F0025753F00754000C3E5409402E53F9400C3
:100A6F00500A0540E5407002053F80EB053EE53E2C
:060A7F007002053D80D06D
:010A8500224E
:040A86008E418F42CC
:100A8A00754300754400C3E5449542E543954150DA
:100A9A0025754500754600C3E546940AE545940068
:100AAA00500A0546E5467002054580EB0544E544D3
:060ABA007002054380D02C
:010AC0002213
:10085500900042E4F0A3E4F0900054E0FEA3E0FF32
:10086500D3EF9400EE94004045900042E4F0A3E4F9
:10087500F0900054E0FEA3E0FF900042E0FCA3E00E
:10088500FDC3ED9FEC9E501EC2B37F0A7E00120A87
:100895004BD2B37F0A7E00120A4B900042E475F0FA
:0E08A500011205A080CB900054E4F0A3E4F013
:0108B3002222
:02000E008F5908
:10001000900044E4F0A3E4F0E559B40103D2B22225
:02002000C2B26A
:0100220022BB
:100B350075800075900075A00075B00075D3F075CF
:100B4500D20275D50075D44F75D70075D61875DBEB
:100B55002075DA0FD295D294D2A6D2A5D2B4D2936B
:060B6500C2A4120C3622AE
:1009D100D28020801A90004BE0FFEF70120521E5D4
:1009E10021D3941E4028D2A490004B74AAF0223047
:1009F100801C752100052290004BE0FFEFB4AA0E88
:0E0A0100E522D3941E4007C2A490004BE4F0FF
:010A0F0022C4
:100AC100D283208318900057E0FFEF70100523E5D3
:100AD10023D3941E402490005774AAF02230831A25
:100AE1007523000524900057E0FFEFB4AA0CE5241C
:0A0AF100D3941E4005900057E4F076
:010AFB0022D8
:10002600D2973097130526E526D39432401B9000CD
:100036004D74AAF0752600227526000525E525D300
:090046009432400590004DE4F0F5
:01004F00228E
:0607F0008F478D488B4984
:1007F600754A00754B00120CC67F1B120CD37F2A5C
:10080600120CD37F01120CD3AF47120CD3AF481290
:100816000CD3AF49120CD3AF477E00EF2446FFEE50
:100826003400FEAD487C00EF2DFFEE3CFEAD497C6A
:1008360000EF2DF54BEE3CF54AE54AFF7E00EF54FE
:0E084600FFFF120CD3AF4BEF54FFFF120CD389
:010854002281
:10005600900046E4F0900047E4F0900048E4F01287
:100066000AFCEFC39408500302032B12098FEF64B6
:100076001B600302032B12098FEF642A600302033D
:100086002B12098FEF6402600302032B12098F9073
:100096000046EFF012098F900047EFF012098F909B
:1000A6000048EFF012098F900049EFF012098F9087
:1000B600004AEFF0900049E0FF7E00EF7F00FE90DF
:1000C600004AE0FD7C00EF2DF54DEE3CF54C90002E
:1000D60046E0FF7E00EF2447FFEE3400FE90004727
:1000E600E0FD7C00EF2DFFEE3CFE900048E0FD7C3D
:1000F60000EF2DF54FEE3CF54EE54F654D7004E5EE
:100106004E654C600302032B900046E0FFEF12059C
:10011600C2015401016302018703019C0401CA055F
:10012600031F0601E40701720901F1100210110212
:100136002912024213025B14027415028D1602ED97
:100146001703061802A61901D7200000032B120C6C
:10015600528F2A7B00AD2A7F011207F022120C6D06
:100166008F297B00AD297F021207F02212071C900F
:100176000053EFF0900053E0FD7B007F091207F07B
:1001860022120B6B90004CEFF090004CE0FD7B00D0
:100196007F031207F022900047E0FFEF7010858D75
:1001A60033858B34AB34AD337F041207F022858D53
:1001B60033858B34AB34AD337F041207F0758D0075
:1001C600758B0022900057E0FD7B007F051207F03B
:1001D6002290004BE0FD7B007F201207F02290006A
:1001E6004DE0FD7B007F071207F022900047E0FFFD
:1001F600EFB401077F0112000E80057F0012000E8A
:100206007B007D007F101207F022900047E0FFEF91
:10021600B40104D2B18002C2B17B007D007F11120D
:1002260007F022900047E0FFEFB40104D2B080024D
:10023600C2B07B007D007F121207F022900047E0DB
:10024600FFEFB40104D2A38002C2A37B007D007F2E
:10025600131207F022900047E0FFEFB40104D29199
:100266008002C2917B007D007F141207F02290006D
:1002760047E0FFEFB40104D2908002C2907B007D7C
:10028600007F151207F022900047E0FFEFB401044B
:10029600D2A48002C2A47B007D007F161207F02242
:1002A600900047E0FFEFB4010C9000547401F0A3F6
:1002B60074F4F08028900047E0FFEFB4020C900041
:1002C600547403F0A374E8F08013900047E0FFEF46
:1002D600B4030A9000547413F0A37488F07B007D75
:1002E600007F191207F022900047E0FFEFB40104E7
:1002F600D2968002C2967B007D007F171207F022FD
:10030600900047E0FFEFB40104D2818002C2817BF6
:10031600007D007F181207F02290005AE0FD7B0056
:050326007F061207F044
:01032B0022AF
:100B9D00D2823082120527E527D39432401B900074
:100BAD005AE4F0752700227527000528E528D3940F
:090BBD0032400690005A7401F068
:010BC600220C
:100C3600C296C281C290C291C2A3C2B0C2B1C2B2B0
:0C0C46007F0012000ED292C2B5D2B32281
:10071C00755400755500755600C292C2937FC87E01
:10072C0000120A86755400E554C39410502AD293D3
:10073C007F147E00120A86E55625E0F556E5553302
:10074C00F55530B406435601435500C2937F147ED1
:10075C0000120A86055480CFE556AE557803CEC3F9
:10076C0013CE13D8F9F5568E55D292E556AE557870
:0D077C0002CEC313CE13D8F9FFEF24FAFF0D
:01078900224D
:10094D00C2AF120B35120C88120CDE120C528F2A0C
:10095D00120C6D8F29120CAC120C9D12071CD2AF0C
:10096D001208551200561209D1120855120B9D127C
:10097D000AC11200261200037F0A7E00120A10809F
:02098D00E22264
:0D0CAC0075F75575F7AA75F75A75B627222A
:0400030075B7552256
:0D0CB90075F75575F7AA75F75A75B6002244
:0A07DF004100000041004100C1018B
:100C880075BA0375AACC43918043878043A89075B1
:050C98009850C29922F2
:03002300020902CD
:10090200C0E0C083C082C0D075D000C00730982C30
:10091200C298900041E0FF74012FF582E43400F5A3
:1009220083E599F0900041E004F0900041E0FFEF90
:10093200C39440400B900041E4F08004C201C2998C
:0B094200D007D0D0D082D083D0E032AC
:0B0CD3008F5AD201855A992001FD22A2
:100AFC00755B00900000E0FF900041E0FEEEC39FAC
:100B0C004011900000E0FF900041E0FEC3EE9FF525
:100B1C005B8013900000E0FFC374409FFF90004186
:080B2C00E0FEEF2EF55BAF5B6C
:010B3400229E
:0D0CC600900041E4F0900000E4F07F002277
:10098F00755C00900041E0FF900000E0FEEE6F60AC
:10099F002B900000E0FF74012FF582E43400F58303
:1009AF00E0FF8F5C900000E004F0900000E0FFEFAC
:1009BF00C39440400A900000E4F08003755C00AFE0
:0109CF005CCB
:0109D0002204
:0F0C9D0043A808758950758D00758B00D28E2283
:03000B00020BF0F5
:060BF000C0E0C083C082DA
:100BF600900064E4F0900065E4F0900064E58DF008
:060C0600900065E58BF093
:070C0C00D082D083D0E0325A
:10032C000F8D0F870F810F7A0F730F6C0F650F5D99
:10033C000F550F4D0F440F3B0F320F280F1E0F148C
:10034C000F090EFE0EF20EE70EDA0ECD0EC00EB237
:10035C000EA40E960E860E770E670E560E450E34B4
:10036C000E220E0F0DFD0DE90DD50DC10DAC0D9628
:10037C000D800D690D520D3B0D230D0A0CF10CD89F
:10038C000CBE0CA30C880C6D0C510C350C180BFB13
:10039C000BDE0BC00BA20B830B640B450B250B0563
:1003AC000AE50AC50AA40A830A620A410A2009FE60
:1003BC0009DD09BB0999097709550933091108EFBA
:1003CC0008CD08AC088A086808470825080407E324
:1003DC0007C207A10780076007400720070106E155
:1003EC0006C206A4068506670649062C060F05F20A
:1003FC0005D605BA059E05830568054D0533051917
:10040C00050004E704CE04B6049E0487046F045967
:10041C000443042D0417040203ED03D903C503B1EF
:10042C00039E038B037803660354034303320321B7
:10043C000310030002F102E102D202C302B402A6CD
:10044C000298028A027D027002630257024A023E3F
:10045C0002330227021C0211020601FB01E701E72D
:02046C0001DDB0
:0607E900021C0000C10229
:090CE9008F5D855DAC43AC8022F7
:0B0CDE0075AB0B75AF1FD2BAD2AF226E
:100C1300751E00751F00AFAD7E00EF75F010A4FFC9
:100C2300AEF0ADAE7C00EE4CF51EEF4DF51FAE1EE3
:020C3300AF1FF1
:010C3500229C
:03005300020BC7D6
:100BC700C0E0C0F0C0D075D000C004C005C006C0EA
:100BD70007120C138E1C8F1DD202D007D006D0052A
:090BE700D004D0D0D0F0D0E032EF
:10046E008F578D58C202E55870167F00120CE93076
:10047E0002FDAF57EF25E02408F8A61C08A61D22A2
:10048E00E558B401167F01120CE93002FDAF57EFAB
:10049E0025E02408F8A61C08A61D22E558B402166D
:1004AE007F02120CE93002FDAF57EF25E02408F869
:1004BE00A61C08A61D22E558B403167F03120CE9EC
:1004CE003002FDAF57EF25E02408F8A61C08A61D44
:1004DE0022E558B404167F04120CE93002FDAF5722
:1004EE00EF25E02408F8A61C08A61D22E558B40541
:1004FE00167F05120CE93002FDAF57EF25E02408F8
:10050E00F8A61C08A61D22E558B406167F06120C86
:10051E00E93002FDAF57EF25E02408F8A61C08A627
:10052E001D22E558B407157F07120CE93002FDAF06
:0D053E0057EF25E02408F8A61C08A61D2292
:0208B4008F5063
:1008B600755200755300755200755300755100E569
:1008C60051C3940A5022AD50AF5112046EAF51EF8E
:1008D60025E02408F8E6FE08E6FFEF2553F553EE7B
:1008E6003552F552055180D7AE52AF537C007D0A82
:0B08F60012054B8E528F53AE52AF53D1
:0109010022D3
:020682008F5E89
:1006840090005BE4F0A3E4F090005FE4F090005F7E
:10069400E55EF090005FE0FF1208B490005BEEF0BE
:1006A400A3EFF090005DE4F090005DE0FFEFC394F1
:1006B400A0506290005DE0FF75F002EF90032A12F3
:1006C40005B6E493FE740193FF90005BE0FCA3E0A5
:1006D400FDC3ED9FEC9E503590005DE0FF75F00288
:1006E400EF90032E1205B6E493FE740193FF90007D
:1006F4005BE0FCA3E0FDD3ED9FEC9E401090005D19
:10070400E0FF90005EEFF090005EE0FF2290005D5D
:07071400E004F080937F0078
:01071B0022BB
:100C5200900060E4F0120CB97F00120682900060EE
:0A0C6200EFF0120CAC900060E0FF10
:010C6C002265
:100C6D00900061E4F0120CB97F01120682900061D0
:0A0C7D00EFF0120CAC900061E0FFF4
:010C8700224A
:100B6B00900062E4F0A3E4F0120CB97F031208B416
:100B7B00900062EEF0A3EFF0120CAC900062E0FE7E
:100B8B00A3E0FFC3EF9458EE940250037F01227F42
:010B9B000059
:010B9C002236
:1006020002094DE493A3F8E493A34003F68001F2B8
:1006120008DFF48029E493A3F85407240CC8C333F9
:10062200C4540F4420C8834004F456800146F6DFC8
:10063200E4800B010204081020408090078AE47EC7
:10064200019360BCA3FF543F30E509541FFEE493BD
:10065200A360010ECF54C025E060A840B8E493A384
:10066200FAE493A3F8E493A3C8C582C8CAC583CAAF
:10067200F0A3C8C582C8CAC583CADFE9DEE780BE67
:0107EF000009
:10054B00BC000BBE0029EF8DF084FFADF022E4CC94
:10055B00F875F008EF2FFFEE33FEEC33FCEE9DEC5D
:10056B00984005FCEE9DFE0FD5F0E9E4CEFD22EDA3
:10057B00F8F5F0EE8420D21CFEADF075F008EF2FED
:10058B00FFED33FD4007985006D5F0F222C398FDDE
:05059B000FD5F0EA227B
:1005A000C5F0F8A3E028F0C5F0F8E58215827002E6
:0605B0001583E038F02283
:0C05B600A42582F582E5F03583F5832250
:1005C200D083D082F8E4937012740193700DA3A3C8
:1005D20093F8740193F5828883E4737402936860DC
:0605E200EFA3A3A380DFDC
:00000001FF
